:02000000ff00ff
:080002004c6174746963650030
:17000a00694345637562653220323032302e31322e32373934330071
:15002100506172743a2069434534304c50384b2d434d3831003f
:1b003600446174653a204d617220333120323032352031353a33393a3432007e
:0200510000ffae
:040053007eaa997e6a
:02005700510056
:0200590001059f
:03005b00920020f0
:03005e00620367d3
:0300610072011019
:0300640082000017
:02006700110086
:02006900010193
:20006b00000000000000000000000000000000000000000000000000000000000000000075
:20008b00000000000000000000000000000000000000000000000000000000000000000055
:2000ab00000000000000000000000000000000000000000000000000000000000000000035
:0d00cb000000000000000000000000000028
:2000d800000000000000000000000000000000000000000000000000000000000000000008
:2000f8000000000000000000000000000000000000000000000000000000000000000000e8
:200118000000000000000000000000000000000000000000000000000000000000000000c7
:0d01380000000000000000000000000000ba
:2001450000000000000000000000000000000000000000000000000000000000000000009a
:2001650000000000000000000000000000000000000000000000000000000000000000007a
:2001850000000000000000000000000000000000000000000000000000000000000000005a
:0d01a500000000000000000000000000004d
:2001b20000000000000000000000000000000000000000000000000000000000000000002d
:2001d20000000000000000000000000000000000000000000000000000000000000000000d
:2001f2000000000000000000000000000000000000000000000000000000000000000000ed
:0d02120000000000000000000000000000df
:20021f000000000000000000000000000000000000000000000000000000000000000000bf
:20023f0000000000000000000000000000000000000000000000000000000000000000009f
:20025f0000000000000000000000000000000000000000000000000000000000000000007f
:0d027f000000000000000000000000000072
:20028c00000000000000000000000000000000000000000000000000000000000000000052
:2002ac00000000000000000000000000000000000000000000000000000000000000000032
:2002cc00000000000000000000000000000000000000000000000000000000000000000012
:0d02ec000000000000000000000000000005
:2002f9000000000000000000000000000000000000000000000000000000000000000000e5
:200319000000000000000000000000000000000000000000000000000000000000000000c4
:200339000000000000000000000000000000000000000000000000000000000000000000a4
:0d0359000000000000000000000000000097
:20036600000000000000000000000000000000000000000000000000000000000000000077
:20038600000000000000000000000000000000000000000000000000000000000000000057
:2003a600000000000000000000000000000000000000000000000000000000000000000037
:0d03c600000000000000000000000000002a
:2003d30000000000000000000000000000000000000000800000000000000000000000008a
:2003f3000000000000000000000000000000000000000000000000000000000000000000ea
:200413000000000000000000000000000000000000000000000000000000000000000000c9
:0d04330000000000000000000000000000bc
:2004400000000000000000000000000000000000000000000000000000000000000000009c
:2004600000000000000000000000000000000000000000000000000000000000000000007c
:2004800000000000000000000000000000000000000000000000000000000000000000005c
:0d04a000000000000000000000000000004f
:2004ad0000000000000000000000000000000000000000000000000000000000000000002f
:2004cd0000000000000000000000000000000000000000000000000000000000000000000f
:2004ed000000000000000000000000000000000000000000000000000000000000000000ef
:0d050d0000000000000000000000000000e1
:20051a000000000000000000000000000000000020000000000000000000000000000000a1
:20053a000000000000000000000000000000000000000000000000000000000000000000a1
:20055a00000000000000000000000000000000000000000000000000000000000000000081
:0d057a00000000000000000000000c000068
:20058700000000000000000000000000000000000000000000000000000000000000000054
:2005a700000000000000000000000000000000000000000000000000000000000000000034
:2005c700000000000000000000000000000000000000000000000000000000000000000014
:0d05e70000000000000000003000000000d7
:2005f4000000000000000000000000000000000010000000000000000000000000000000d7
:200614000000000000000000000000000000000000000000000000000000000000000000c6
:200634000000000000000000000000000000000000000000000000000000000000000000a6
:0d0654000000000000000000000010000089
:20066100000000000000000000000000000000000000000000000000000000000000000079
:20068100000000000000000000000000000000000000000000000000000000000000000059
:2006a100000000000000000000000000000000000000000000000000000000000000000039
:0d06c100000000000000000000000000002c
:2006ce000000000000000000000000000000000020000000000000000000000000000000ec
:2006ee000000000000000000000000000000000000000000000000000000000000000000ec
:20070e000000000000000000000000000000000000000000000000000000000000000000cb
:0d072e0000000000000000000000000000be
:20073b0000000000000000000000000000000000000000000000000000000000000000009e
:20075b00000000000000000000000000000000000000000001e00800400000000000000055
:20077b0000000000000000000000000000000000000000000000000000000000000000005e
:0d079b000000000000000000000000000051
:2007a800000000000000000000000000000000000000000000000000000000000000000031
:2007c8000000000000000000000000000000000000001000240000002000000000000000bd
:2007e8000000000000000000000000000000000000000000000000000000000000000000f1
:0d08080000000000000000000000000000e3
:200815000000000000000000000000000000000000000000000000000000000000000000c3
:2008350000000000000000000000000000000000000600200060000000000000000000001d
:20085500000000000000000000000000000000000000000000000000000000000000000083
:0d0875000000000000000000000000000076
:20088200000000000000000000000000000000000000000000000000000000000000000056
:2008a200000000000000000000000000000000000008000c2420800000000000000000005e
:2008c200000000000000000000000000000000000000000000000000000000000000000016
:0d08e2000000000000000000000000000009
:2008ef000000000000000000000000000000000000000000000000000000000000000000e9
:20090f00000000000000000000000000000000000000000001604000000000000000000027
:20092f000000000000000000000000000000000000000000000000000000000000000000a8
:0d094f00000000000000000000000000009b
:20095c0000000000000000000000000000000000000000000000000000000000000000007b
:20097c000000000000000000000000000000000000000a0020200000000000000000000011
:20099c0000000000000000000000000000000000000000000000000000000000000000003b
:0d09bc00000000000000000000000000002e
:2009c90000000000000000000000000000000000000000000000000000000000000000000e
:2009e9000000000000000000000000000000000000000000004000000000000000000000ae
:200a09000000000000000000000000020000000000000000000000000000000000000000cb
:0d0a290000000000000000000000000000c0
:200a36000000000000000000000000000000000000000000000000000000000000000000a0
:200a56000000000000000000000000000000000000000024202040000000000000000000dc
:200a760000000000000000000000000000000000000000000000000001000000000000005f
:0d0a96000000000000000000000000000053
:200aa300000000000000000000000000000000000000000000000000000000000000000033
:200ac30000000000000000000000000000000000000000000160100800000000000000009a
:200ae3000000000000000000000000000000000000000000000000000000000000000000f3
:0d0b030000000000000000000000000000e5
:200b10000000000000000000000000000000000000000000000000000000000000000000c5
:200b3000000000000000000000000000000000000000000000000010000000000000000095
:200b5000000000000000000000000000000000000000000000000000000000000000000085
:0d0b70000000000000000000000000000078
:200b7d00000000000000000000000000000000000000000000000000000000000000000058
:200b9d00000000000000000000000000000000000000000001c00000000000000000400037
:200bbd00000000000000000000000000000000000000000000000000000000000000000018
:0d0bdd00000000000000000000000000000b
:200bea000000000000000000000000000000000000000000000000000000000000000000eb
:200c0a0000000000000000000000000000000000000000003c208000000000000000a0004e
:200c2a0000000000000000000000000020000000000000000000000000000000000000008a
:0d0c4a00000000000000000000000000009d
:200c570000000000000000000000000000000000000000000000000000000000000000007d
:200c77000000000000000000000000000000000000000000214020000000000000000000dc
:200c970000000000000000000000000000000000000000000000000000000000000000003d
:0d0cb7000000000000000000000000000030
:200cc400000000000000000000000000000000000000000000000000000000000000000010
:200ce400000000000000000000000000000000000000000040200000000000000000000090
:200d04000000000000000000000000000000000000000000000000000000000000000000cf
:0d0d240000000000000000000000000000c2
:200d31000000000000000000000000000000000000000000000000000000000000000000a2
:200d5100000000000000000000000000000000000004000000e0100000000000000000008e
:200d7100000000000000000000000000000000000000000000000000000000000000000062
:0d0d91000000000000000000000000000055
:200d9e00000000000000000000000000000000000000000000000000000000000000000035
:200dbe000000000000000000000000000000000000040024002000000000000000000000cd
:200dde000000000000020000000000000000000000000000000000000000000000000000f3
:0d0dfe0000000000000000000000000000e8
:200e0b000000000000000000000000000000000000000000000000000000000000000000c7
:200e2b00000000000000000000000000000000000000000400601000000000000000000033
:200e4b00000000000000000000000000000000000000000000000000000000000000000087
:0d0e6b00000000000000000000000000007a
:200e780000000000000000000000000000000000000000000000000000000000000000005a
:200e98000000000000000000000000000000000000000002202000000008000000000000f0
:200eb80000000000000000000000000000000000000000000000000000000000000000001a
:0d0ed800000000000000000000000000000d
:200ee5000000000000000000000000000000000000000000000000000000000000000000ed
:200f0500000000000000000000000000000000000006000039c080000000000000000e003f
:200f25000000000000000000000000000000000000000000000000000000000000000000ac
:0d0f4500000000000000000000000000009f
:200f520000000000000000000000000000000000000000000000000000000000000000007f
:200f7200000000000000000000000000000000000008000040000000000000000000000017
:200f920000000000000000000000000000000000000000000000000000000000000000003f
:0d0fb2000000000000000000000000000032
:200fbf00000000000000000000000000000000000000000000000000000000000000000012
:200fdf0000000000000000000000000000000000000c00000040000000080000000000009e
:200fff000000000000000000000000000000000000000000000000000000000000000000d2
:0d101f0000000000000000000000000000c4
:20102c000000000000000000000000000000000000000000000000000000000000000000a4
:20104c0000000000000000000000000000000000000c1a0000000800001000000000000046
:20106c00000000000000000000000000000000000000000000000000000000000000000064
:0d108c000000000000000000000000000057
:20109900000000000000000000000000000000000000000000000000000000000000000037
:2010b900000000000000000000000000000000000001002000c04000000012940800000048
:2010d9000000000000000000000000000000000000000000000000000000000000000000f7
:0d10f90000000000000000000000000000ea
:201106000000000000000000000000000000000000000000000000000000000000000000c9
:20112600000000000000000000000000000000000000100c0000000000003c000001000050
:20114600000000000000000000000000000000000000000000000000000000000000000089
:0d116600000000000000000000000000007c
:2011730000000000000000000000000000000000000000000000000000000000000000005c
:20119300000000000000000000000000000000000000000000e0000001000000000000005b
:2011b30000000000000000000000000000000000000000000000000000000000000000001c
:0d11d300000000000000000000000000000f
:2011e0000000000000000000000000000000000000000000000000000000000000000000ef
:2012000000000000000000000000000000000000000000240020800000000000000000000a
:201220000000000000000000000000000000000000000000000000000000000000000000ae
:0d12400000000000000000000000000000a1
:20124d00000000000000000000000000000000000000000000000000000000000000000081
:20126d00000000000000000000000000000000000000002070401000000000000000000081
:20128d00000000000000000000000000e0000000000000000000000002000000000000005f
:0d12ad000000000000000000000000000034
:2012ba00000000000000000000000000000000000000000000000000000000000000000014
:2012da00000000000000000000000000000000000000002c00200002800000000000000026
:2012fa000000000000000000000000000800000000000000000000000000000000000000cc
:0d131a0000000000000000000000000000c6
:201327000000000000000000000000000000000000000000000000000000000000000000a6
:20134700000000000000000000000000000000000000001c69600000000000000000200081
:20136700000000000000000000000000000000000000000000000000000000000000000066
:0d1387000000000000000000000000000059
:20139400000000000000000000000000000000000000000000000000000000000000000039
:2013b4000000000000000000000000000000000000000002000020000000000000004000b7
:2013d4000000000000000000000000000000000000000000000000000000000000000000f9
:0d13f40000000000000000000000000000ec
:201401000000000000000000000000000000000000000000000000000000000000000000cb
:2014210000000000000000000000000000000000000c004401e0400000000000000000003a
:2014410000000000000000000000000000000000000000000000000000000000000000008b
:0d146100000000000000000000000000007e
:20146e0000000000000000000000000000000000000000000000000000000000000000005e
:20148e000000000000000000000000000000000000040082000000000000000000000800b0
:2014ae000000000000000000000000000000000000004000000000000000000000000000de
:0d14ce000000000000000000000000000011
:2014db004000000000000000000000000000000000000000000000000000000000000000b1
:2014fb00000000000000000000000000000000000000000001c00000000000000000000010
:20151b000000000000000000000000000000000000000000000000000000000000000000b0
:0d153b0000000000000000000000000000a3
:20154800000000000000000000000000000000000000000000000000000000000000000083
:201568000000000000000000000000000000000000001000002008018000000000000000aa
:20158800000000000000000000000000000000000000000000000000000000000000000043
:0d15a8000000000000000000000000000036
:2015b500000000000000000000000000000000000000000000000000000000000000000016
:2015d500000000000000000000000000000000000006000000e0000000000000000000818f
:2015f5000000000000040000000000000000000000000000000000000000000000000000d2
:0d16150000000000000000000000000000c8
:20162200800000000000000000000000000000000000000000000000000000000000000028
:201642000000000000000000000000000000000000080000000080000000000000000100ff
:20166200000000000000000000000000000000000000000000000000000000000000000068
:0d168200000000000000000000000000005b
:20168f004400000000000000000000000000000000000000000000000000000000000000f7
:2016af00000000000000000000000040000000000000000471600000000000000000000006
:2016cf0000000000000000000000000000000000000080000000000000000000000000007b
:0d16ef0000000000000000000000000000ee
:2016fc000800000000000000000000000000000000000000000000000000000000000000c6
:20171c000000000000000000000000000000000000000000400040018000000000000000ac
:20173c0000000000000000000000000000000000000000000000000000000000000000008d
:0d175c000000000000000000000000000080
:20176900000100380000000000000000000000000000000000000000000000000000000027
:201789000000000000000000000000000000000000000000014040000000000000000000bf
:2017a900000000000000000000000000000000000000000000000000000000000000000020
:0d17c9000000000000000000000000000013
:2017d6000000000000000000000000000000000000000000000000000000000000000000f3
:2017f60000000000000000000000000000000000000000240020000000000000000000008f
:201816000000000000000000000000000000000000000000000000000000000000000000b2
:0d18360000000000000000000000000000a5
:2018430000780000000000000000000000000000000000000000000000000000000000000d
:20186300000000000000000000000000000000000000000004e04028000000000000000019
:20188300000000000000000000000000000000000000000000000000000000000000000045
:0d18a3000000000000000000000000000038
:2018b0000040000000000000000000000000000000000000000000000000000000000000d8
:2018d0000000000000000000000000000000000000000000300000000000000000000000c8
:2018f0000000000000000000000000000000000000000000000000000000000000000000d8
:0d19100000000000000000c000000000000a
:20191d000000000000000000000000000000000000000000000000000000000000000000aa
:20193d00000000000000000000000000000000000000000400c004000000000000000000c2
:20195d0000000000000000000000000000000000000000000000000000000000000000006a
:0d197d00000000000000000000000000005d
:20198a0000000000000000000000000000000000000000000000000000000000000000003d
:2019aa000000000000000000000000000000000000000a26002000000000000000000000cd
:2019ca000000000000000000000000002000000000000000000000000000000000000000dd
:0d19ea0000000000000000000000000000f0
:2019f7000000000000000000000000000000000000000000000000000000000000000000d0
:201a1700000000000000000000000000000000000000004001c04008000000000000000066
:201a370000000000000000000000000000000000000000000000000000000000000000008f
:0d1a57000000000000002000000000000062
:201a6400000000000000000000000000000000000000000000000000000000000000000062
:201a840000000000000000000000000000000000000000243c0000100000000000000000d2
:201aa400000000000000000000000000000000000000000000000000000000000000000022
:0d1ac4000000000000000000000000000015
:201ad1000000000000000000000000000000000000000000000000000000000000000000f5
:201af10000000000000000000000000000000000000c000e0140400000000000000000003a
:201b11000000000000000000000000000000000000000000000000000000000000000000b4
:0d1b310000000000000000000000000000a7
:201b3e00000000000000000000000000000000000000000000000000000000000000000087
:201b5e0000000000000000000000000000000000000c00000000000000000000000000005b
:201b7e00000000000000000000000000000000000000400000000000000000000000000007
:0d1b9e00000000000000000000000000003a
:201bab0000000000000000000000000000000000000000000000000000000000000000001a
:201bcb00000000000000000000000000000000000000000400402000100000000000000086
:201beb000000000000000000000000000000000000000000000000000000000000000000da
:0d1c0b0000000000000000000000000000cc
:201c18000000000000000000000000000000000000000000000000000000000000000000ac
:201c380000000000000000000000000000000000000000022000000000000000000000006a
:201c580000000000000000000000000000000000000000000000000000000000000000006c
:0d1c7800000000000000000000000000005f
:201c850000000000000000000000000000000000000000000000000000000000000000003f
:201ca500000000000000000000000000000000000006002001408000000000000000000038
:201cc5000000000000040000000000000000000000000000000000000000000000000000fb
:0d1ce50000000000000000000000000000f2
:201cf2000000000000000000000000000000000000000000000000000000000000000000d2
:201d1200000000000000000000000000000000000008002c0020000000000000000000005d
:201d3200000000000000000000000040000000000000000000000000000000000000000051
:0d1d52000000000000000000000000000084
:201d5f00000000000000000000000000000000000000000000000000000000000000000064
:201d7f0000000000000000000000000000000000000c108078e00000000000000000200030
:201d9f00000000000000000000000000000000000000000000000000000000000000000024
:0d1dbf000000000000000000000000000017
:201dcc000000000000000000000000000000000000000000000000000000000000000000f7
:201dec0000000000000000000000000000000000000c1140002040000000000000004000da
:201e0c000000000000000000000000000000000000000000000000000000000000000000b6
:0d1e2c0000000000000000000000000000a9
:201e3900000000000000000000000000000000000000000000000000000000000000000089
:201e5900000000000000000000000000000000000000100001c020000000000000004080b8
:201e7900000000000000000000000000000000000000000000000000000000000000000049
:0d1e9900000000000000000000000000003c
:201ea60000000000000000000000000000000000000000000000000000000000000000001c
:201ec600000000000000000000000000000000000000100000000000000000000000a1400b
:201ee6000000000000000000000000000000000000000000000000000000000000000000dc
:0d1f060000000000000000000000000000ce
:201f13000000000000000000000000000000000000000000000000000000000000000000ae
:201f3300000000000000000000000000000000000000000039c0200810000000000000005d
:201f530000000000000000000000000000000000000000000000000000000000000000006e
:0d1f73000000000000000000000000000061
:201f8000000000000000000000000000000000000000000000000000000000000000000041
:201fa000000000000000000000000000000000000000060040000010000000000000a0002b
:201fc000000000000000000000000000000000000000000000000000000000000000000001
:0d1fe00000000000000000000000000000f4
:201fed000000000000000000000000000000000000000000000000000000000000000000d4
:20200d00000000000000000000000000000000000000010021e04000000000000000000071
:20202d00000000000000000000000000000000000000000000000000000000000000000093
:0d204d000000000000000000000000000086
:20205a00000000000000000000000000000000000000000000000000000000000000000066
:20207a000000000000000000000000000000000000000080000000000000000000000000c6
:20209a00000000000000000000000000000000000000000000000000000000000000000026
:0d20ba000000000000000000000000000019
:2020c7000000000000000000000000000000000000000000000000000000000000000000f9
:2020e700000000000000000000000000000000000000001e70c01028000000000000000053
:202107000000000000000000000000000000000000000000000000000000000000000000b8
:0d21270000000000000000000000000000ab
:2021340000000000000000000000000000000000000000000000000000000000000000008b
:20215400000000000000000000000000000000000000005c402000010000000000000000ae
:2021740000000000000000000000000000000000000000000000000000000000000000004b
:0d219400000000000000000000000000003e
:2021a10000000000000000000000000000000000000000000000000000000000000000001e
:2021c100000000000000000000000000000000000004001c0040000000000000000040005e
:2021e1000000000000000000000000000000000000000000000000000001000000000000dd
:0d2201008000000000000000000000000050
:20220e000000000000000000000000000000000000000000000000000000000000000000b0
:20222e00000000000000000000000000000000000004000200200800000000000000a000c2
:20224e00000000000000000000000000200000000000000000000000000000000000000050
:0d226e000000000000000000000000000063
:20227b00400000000000000000000000000000000000000000000000000000000000000003
:20229b000000000000000000000000000000000000000e4020c00400500000000000a00001
:2022bb00000000000000000000000020600000000000000000000000000000000000000083
:0d22db0000000000000000000000000000f6
:2022e8000000000000000000000000000000000000000000000000000000000000000000d6
:2023080000000000000000000000000000000000000016004000000000000000000000005f
:20232800000000000000000000000000000000000000000000000000000000000000000095
:0d2348000000000000000000000000000088
:20235500000000000000000000000000000000000000000000000000000000000000000068
:20237500000000000000000000000000000000000006000001e00010000000000000000051
:20239500000000000004000000000000000000000000000000000000000000000000000024
:0d23b500800000000000000000000000009b
:2023c20080000000000000000000000000000000000000000000000000000000000000007b
:2023e200000000000000000000000000000000000008000024008008000000000000000027
:202402000000000000000000000000000000000000000000000000000000000000000000ba
:0d242200000000000000008000000000002d
:20242f00480000000000000000000000000000000000000000000000000000000000000045
:20244f00000000000000000000000000000000000000000000e00008000000000000000085
:20246f000000000000000000000000006800000000000000000000000000000000000000e5
:0d248f000000000000000000000000000040
:20249c000c0000000000000000000000000000000000000000000000000000000000000014
:2024bc0000000000000000000000000000000000000000c00000401180000000000000006f
:2024dc000000000000000000000000000400000000000000000000000000000000000000dc
:0d24fc0000000000000000000000000000d3
:202509000001000000000000000000000000000000000000000000000000000000000000b1
:20252900000000000000000000000000000000000000001c00600003000000000000000013
:2025490000000000000000000000000004000000000000000000000000000000000000006e
:0d2569000000000000000000000000000065
:20257600003c00000000000000000000000000000000000000000000000000000000000009
:202596000000000000000000000000000000000000000002002040000000000000000000c3
:2025b6000000000000000000000000000800000000000000000000000000000000000000fd
:0d25d60000000000000000000000000000f8
:2025e3000000000000000000000000000000000000000000000000000000000000000000d8
:20260300000000000000000000000000000000000000001e044040004000000000000000d5
:2026230000000000002800000000000000000000000000000000000000000000000000006f
:0d264300000000000000000000000000008a
:2026500000000000000000000000000000000000000000000000000000000000000000006a
:202670000000000000000000000000000000000000000002382000002000000000000000d0
:2026900000000000000000000000000000000000000000000000000000000000000000002a
:0d26b000000000000000000000000000001d
:2026bd000000000000000000000400000000000000000000000000000000000000000000f9
:2026dd00000000000000000000000000000000000000001e00e000002000000000000000bf
:2026fd000000000000000000000000020000000000000000000000000000000000000000bb
:0d271d0000000000000000000000000000af
:20272a0000000000000000000002000000000000000000000000000000000000000000008d
:20274a0000000000000000000000000000000000000000002420800050000000000000005b
:20276a0000000000000000000000000440000000000000000000000000000000000000000b
:0d278a000000000000000000000000000042
:20279700000000000000000000000000000000000000000000000000000000000000000022
:2027b700000000000000000000000000000000000000000001e010005000000000000000c1
:2027d7000000000000000000000000000000000000000000000000000000000000000000e2
:0d27f70000000000000000000000000000d5
:202804000000000000000000000000000000000000000000000000000000000000000000b4
:20282400000000000000000000000000000000000000000000000000000000000000000094
:20284400000000000000000000000000000000000000000000000000000000000000000074
:0d2864000000000000000000000000000067
:20287100000000000000000000000000000000000000000000000000000000000000000047
:20289100000000000000000000000000000000000004003e00c000100000000000000e0007
:2028b100000000000001000000000000000000000000000000000000000000000000000006
:0d28d10000000000000002000000000000f8
:2028de000000000000000000000000000000000000000000000000000000000000000000da
:2028fe0000000000000000000000000000000000000c003e00201028000000000000000018
:20291e00000000000000000000000000000000000000000000000000000000000000000099
:0d293e000800000000000000000000000084
:20294b0000000000000000000000000000000000000000000000000000000000000000006c
:20296b0000000000000000000000000000000000000040040060042bc000000000010000b8
:20298b0000000000000000000000000000000000000000000000000000000000000000002c
:0d29ab00000000000000000000000000001f
:2029b8000000000000000000000000000000000000000000000000000000000000000000ff
:2029d800000000000000000000000000000000000000280220000001200000000000000074
:2029f80000000000000000000000000260000000000000000000000000000000000000005d
:0d2a180000000000000010000000000000a1
:202a2500000000000000000000000000000000000000000000000000000000000000000091
:202a4500000000000000000000000000000000000006001c01e080000100000000000000ed
:202a650000000000000400000000000010000000000000000000000000000000000000003d
:0d2a85000000000000000000000000000044
:202a9200000000000000000000000000000000000000000000000000000000000000000024
:202ab2000000000000000000000000000000000000080002002000000080000000000a0050
:202ad2000000000000200000000000000000000000000000000000000000000000000000c4
:0d2af20000000000000004000000000000d3
:202aff000000000000000000000000000000000000000000000001000000000000000000b6
:202b1f000000000000000000000000000000000000041000784000001000000000000000ba
:202b3f00000000000000000000000000000000000000000000000000000000000000000472
:0d2b5f000000000000000000000000000069
:202b6c00000000000000000000000000000000000000000000000000000000000000000049
:202b8c0000000000000000000000000000000000000c10004000400000000000000000008d
:202bac00000000000000000000000000000000000000000000000000000000000000000009
:0d2bcc0000000000000000000000000000fc
:202bd9000000000000000000000000000000000000000000000000000000000000000000dc
:202bf900000000000000000000000000000000000000100000c000000000000000000000ec
:202c1900000000000100000000000000080000000000000000000000000000000000000092
:0d2c3900000000000000000000000000008e
:202c460000000000000000000000000000000000000000000000000000000000000000006e
:202c66000000000000000000000000000000000000001600000080000000000000000000b8
:202c860000000000028000000000000010000000000000004000000000000000000000005c
:0d2ca6000000000000000000000000000021
:202cb300000000000000000000000000000000000000000000000000000000000000000001
:202cd300000000000000000000000000000000000000000070c0000000001f814040200071
:202cf3000000000000000000000000000000000000000000000000000000000000000000c1
:0d2d130000000000000000000000000000b3
:202d2000000000000000000000000000000000000000000000000000000000000000000093
:202d4000000000000000000000000000000000000000002440200800000070000000e40093
:202d6000000000000000000000000000000000000000000000000000000000000000000053
:0d2d80000000000000000000000000000046
:202d8d00000000000400000000000000000000000000000000000000000000000000000022
:202dad000000000000000000000000000000000000000020004020201000000000000c004a
:202dcd000000000001000000000000000000000000000800000000000200000000000000db
:0d2ded0000000000000000000000000000d9
:202dfa000000000000000000000000000000000000000000000000000000000000000000b9
:202e1a000000000000000000000000000000000000000e1400200000200000000000000036
:202e3a000000000002800000000000040000000000000050000000000000000000000000a2
:0d2e5a00000000000000000000000000006b
:202e670000000000000000000000000000000000000000000000000000000000000000004b
:202e8700000000000000000000000000000000000000400001e00000030e1f814000000019
:202ea70000000000000000000000000000000000000000000000000000000000000000000b
:0d2ec70000000000000000000000000000fe
:202ed4000000000000000000000000000000000000000000000000000000000000000000de
:202ef400000000000000000000000000000000000000a000002080028010f00008000000f4
:202f140000000000000000000000000000000000000000000000000000000000000000009d
:0d2f3400000400000000000000000000008c
:202f4100000000000000000000000000000000000000000000000000000000000000000070
:202f610000000000000000000000000000000000000c000e3ce040000000000000000000da
:202f810000000000000000000000000010000000000000000000000000010000000000001f
:0d2fa1000000000000000000000000000023
:202fae00000000000000000000000000000000000000000000000000000000000000000003
:202fce0000000000000000000000000000000000000c000268000000070000000000000066
:202fee000000000000000000000000000800000000000000000000000000000000000000bb
:0d300e0000000000000000000000000000b5
:20301b00400000000000000000000000000000000000000000000000000000000000000055
:20303b00000000000000000000000000000000000000000021400000070057e8900000201e
:20305b0023db45408002000000000000a0004000000001001997014000000000000000007e
:0d307b000000000000000008000000000040
:20308800000000000000000000000000000000000000000000000000000000000000000028
:2030a800000000000000000000000000000000000000100040204000098b17a91010003ca8
:2030c80003c88550000400000000000a000380000000000008f8294000000000000000004e
:0d30e80004000000000000040000000000d3
:2030f5000000000000000000000000000000000000000000000000000000000000000000bb
:20311500000000000000000000000000000000000006000000e0018000000000000600002d
:2031350078584008000000000000000002002595e0018b201e169fd8900c000000000000d3
:0d315500280007fc00001200000000000030
:203162008000000000000000000000000000000000000000000000000000000000000000cd
:2031820000000000000000000000000000000000000800003c008200000000000008003c23
:2031a200000f4010000000000000000001c036f1d002005010b83fd20000000000000000cb
:0d31c20000000fbc940000000000000000a1
:2031cf0044000000000000000000000000000000000000000000000000000000000000009c
:2031ef0000000000000000000000000000000000000001800440000018000000000c021eb7
:20320f0001d82000000000000000000000000000000300000d1ac680000000000000000036
:0d322f00000000000000040000000000008e
:20323c000c0000000000000000000000000000000000000000000000000000000000000066
:20325c0000000000080000000000000000000000000000003820800001000000000c000065
:20327c0000382008000000000000001000000000000200000edf0fc0000000000000000004
:0d329c000000000000000000000000000025
:2032a9000001000000000000000000000000000000000000000000400000000000000000c4
:2032c900000000000000000000000000000000000000a00000608000070096814200000005
:2032e900004a4000000000000000000a000040000000002500fb1780000000000000000139
:0d33090000000000000000000000000000b7
:20331600000000000000000000000000000000000000000000000020000000000000000077
:203336000000000000000000000000000000000000000e0000200000008078000040000c05
:20335600000f40080000000000000000000380000000004080f7cb80000000000000000279
:0d33760080000000000000000000000000ca
:2033830000000000000000000000000000000000000000000000000000000000000000002a
:2033a300000000000008000000000000000000000000000005e00010101e8310000000004c
:2033c30001c80020000000000000000000000000000003000a0000000000000000000000f4
:0d33e30000000000000000000000000000dd
:2033f0000000000000000000000000000000000000000000000000000000000000000000bd
:203410000000000000000000000000000000000000008000300020200010566000400000a6
:203430000070a000000000000000000000000000000000000d00000000000000000000005f
:0d345000000000000000001400000000005b
:20345d000070000000000000000000000000000000000000000000000000000000000000df
:20347d00000000000000000000000000000000000000a00004c000000708168140000000e5
:20349d000000000000000000000000000000000000000209000000000040000000000000c4
:0d34bd0000000000000002080000000000f8
:2034ca000000000000000000000000000000000000000000000000000000000000000000e2
:2034ea0000000000000000000000000000000000000040243c200800001018000240200070
:20350a0000000000000000000000000028000000000010078000000000a000000000000042
:0d352a000000000000000010000000000084
:20353700000000000000000000000000000000000000000000000000000000000000000074
:20355700000000000000000000000000000000000000010001c0401000008710000000208b
:203577007800000000000000000000000000000000000000000000000000000000000000bc
:0d3597000000000000002000000000000007
:2035a400000000000000000000000000000000000000000000000000000000000000000007
:2035c4000000000000000000000000000000000000000024000000080000566002400004bf
:2035e4002c000000000000000000000004000000000000000800000000000000000000008f
:0d3604000000a00000000000000000000019
:20361100000000000000000000000000000000000000000000000000000000000000000099
:2036310000000000000000000000000000000000000c816e00e003102f819681404c000038
:2036510038000000000000000000000008004000000300038e000000004000000000000005
:0d3671000030a000000000c00000000000bc
:20367e0000000000000000000000000000000000000000000000000000000000000000002c
:20369e0000000000000000000000000000000000000c003c002010085d8e38000000000069
:2036be000000000000080000000000000402c0000002100088000000002e00000000000056
:0d36de000001e000000000000000000000fe
:2036eb000000000000000000000000000000000000000000000000000000000000000000bf
:20370b00000000000000000000000000000000000000008000600000410cbb5788000600d1
:20372b0003f81008012a00000000000001404000000000000e0000000006000000000000ab
:0d374b0000000000000000000035e8000054
:20375800000000000000000000000000000000000000000000000000000000000000000051
:2037780000000000000000000000000000000000000001000020400021807bc740000000ad
:20379800036b0001020100000000000013c340000000001010000000000004000000000065
:0d37b80080000000000000140014b00100ab
:2037c5000000000000000000000000000000000000000000000000000000000000000000e4
:2037e500000000000000000000000000000000000006000020e08000100036014800209ef1
:2038050000000000000000000000006001604795e000032000000000000140780000001832
:0d3825000000cfe5780014020035a8000077
:20383200000000000000000000000000000000000000000000000000000000000000000076
:203852000000000000000000000000000000000000080e00402000002700780000204102de
:2038720000000000000000000000008003c3ceb2e0002010000000000000803c0000002084
:0d38920000f007b4b8000221c01eb0000015
:20389f00000000000000000000000000000000000000000000000000000000000000000009
:2038bf0000000000000000000000000000000000000c500001e000280000120280000000f0
:2038df003000000004008000000000c00007d4a5e00040800000000000421e04000000359c
:0d38ff00085003e10c08000203ede8000092
:20390c0000000000000000000000000000000000000000000000000000000000000000009b
:20392c0000000000000000000000000000000000000c3000000040000f000402806000000a
:20394c000000000000007000000000800243e5d2e0000000000000000080023800000020b5
:0d396c00000000410c000007c394b00000f3
:2039790000000000000000000000001000000000000000000000000000000000000000001e
:20399900000000000000000000000000000000000000114e61c0000000001600488042402e
:2039b900380000000100000000000000000004a43020280000000000008000025e5e000057
:0d39d900050007a9fd4a0060e075b8000078
:2039e6000000000000000000000000000000000000000000000000000000000000000000c1
:203a0600000000000000000000000000000000000000108240004000090000004000a08025
:203a260040000000008000000000000000038104300010000000000000410001cb2e0000bd
:0d3a460000000303fd200200639eb001009c
:203a5300000000000000000000000000000000000000000000000000000000000000000053
:203a7300000000000000000000000000000000000000209e38c01000030f86900000000045
:203a930000000000000080000000000401c04587f7240000000000000200000000000000e5
:0d3ab3000074000000000020e7bde80200e4
:203ac0000000000000000000000000000000000000000000000000000000000000000000e6
:203ae000000000000000000000000000000000000000010000200008009813600240000050
:203b0000000000000000f0000000000810031c0ff41008000000000000ae000000000000b5
:0d3b200000080000000000004416b0000086
:203b2d00000000000000000000000000000000000000000000000000000000000000000078
:203b4d00000000000000000000000000000000000000000004e02010038a36014040a00060
:203b6d000000000000000003380000000000000000000020007b8100028d4400000000000e
:0d3b8d001a79e0000000000003ad95e00093
:203b9a0000000000000000000000000000000000000000000000000000000000000000000b
:203bba000000000000000000000000000000000000000e3c280000280090b80002004001c6
:203bda0000000000000000053c940000000000000000005000764900000082000000000065
:0d3bfa000c00000000000000002ca2e00004
:203c070000000000000000000000000000000000000000000000000000000000000000009d
:203c2700000000000000000000000000000000000000101638c040040000829000001a00ef
:203c4700000000000000701000000001006000000000040808000000000000000000000068
:0d3c67004000000000000020006de800108b
:203c7400000000000000000000000000000000000000000000000000000000000000000030
:203c94000000000000000000000000000000000000000080400000040900136008001000b8
:203cb40000000000000108e000000000000000000000000b100000000000000000000002ea
:0d3cd4008000000000000001c316b00000d9
:203ce1000000000000000000000000000000000000000000000000000000000000000000c3
:203d0100000000000000000000000000000000000004802001604030059eb6014000404013
:203d21000000000000000000000000cb00000000000007050000000000000c026b5e0030a4
:0d3d410040588000000000080035a8010077
:203d4e00000000000000000000000000000000000000000000000000000000000000000055
:203d6e0000000000000000000000000000000000000c003c002000280080380002000000eb
:203d8e00300000000018000000000085000000000000040080000000000c26026c2e0020d6
:0d3dae004010000000000013c01ee00000e7
:203dbb000000000000000000000000000000000000000000000000000000000000000000e8
:203ddb00000000000000000000000000000000000000230021602040078816900000001679
:203dfb0000000000000200000000000401c7a5d5e00000080e3ac68000000620df5e000087
:0d3e1b0028000bf978000a03462795e00007
:203e280000000000000000000000000000000000000000000000000000000000000000007a
:203e4800000000000000000000000000000000000000500040000040000a06500210000216
:203e680000000000020400000000000a002034a2e0000001103fcfc00000003cdf2e00002c
:0d3e880000000728b80008004015d2e00037
:203e950000000000000000000000000000000000000000000000000000000000000000000d
:203eb500000000000000000000000000000000000006002060c0002807889281480600008f
:203ed50002c12400000001a00000006401e001c43021800f009ad78006000001ec4302181a
:0d3ef500005808710c0860e1539fe00000c8
:203f020000000000000000000000000000000000000000000000000000000000000000009f
:203f22000000000000000000000000000000000000080e1c402080018090980002080000ba
:203f420000ea0008000091000000008ac0202408300203570037cb800800000010430020bd
:0d3f620020080b020c0080002005c250005a
:203f6f00000000000000000000000000000000000000000000000000000000000000000032
:203f8f00000000000000000000000000000000000000008001400000078012100804000c90
:203faf00001a010800020010000000c4600726d5e00300001e3690c08c000c024c5e00309c
:0d3fcf000010bd797800c008001e87f520a5
:203fdc000000000000000000000000000000000000000000000000000000000000000000c5
:203ffc000000000000000000000000000000000000000084000080000000065000088014af
:20401c0003cd0210010500e00000008000041dd2e0020000090410c0080000037a2e0020b7
:0d403c000000fbec74008a0003dd0ff400af
:20404900000000000000000000000000000000000000000000000000000000000000000057
:20406900000000000000000000000000000000000000a01c00e020080800138002000020b6
:20408900381a0550042000000000000014e734c42020000001171fd0c008007bdc420200af
:0d40a9000df80f7908080008e025c0500050
:2040b6000000000000000000000000000000000000000000000000000000000000000000ea
:2040d6000000000000000000000000000000000000004006002000100d0918280040083c7a
:2040f60000500a4104000000000000100a402e00100000000f903fd800000040c0010000bc
:0d4116000218cdc004000013e00c0a500098
:2041230000000000000000000000000000000000000000000000000000000000000000007c
:20414300000000000000000000000000000000000000000004400001001c16100040020093
:20416300361c5040c0000009ad7800012a63d6c7f5240207809b940000089c385e7f524124
:0d418300181809b1fd680e00c055a1a0007c
:2041900000000000000000000000000000000000000000000000000000000000000000000f
:2041b00000000000000000000000000000000000000000003c20200000000250020000001f
:2041d0006740a04000010001f4b8200001c7ac0ff41000038973480000000e6640ff4102b6
:0d41f00080700503fd010810036ef3f00060
:2041fd000000000000000000000000000000000000000000000000000000000000000000a2
:20421d00000000000000000000000000000000000000000001e00080d00092814040101e8f
:20423d00016e5050008101f00000001401e3aff5e000002b0e00000000000e00000000021b
:0d425d009851db7468000002e04000000092
:20426a00000000000000000000000000000000000000000000000000000000000000000034
:20428a000000000000000000000000000000000000000000200080002000580000000002fa
:2042aa0000305040400401f00000001a21e23ee2e000005100000000000f5e000000000123
:0d42ca000051b768fc000003630000000015
:2042d700000000000000000000000000000000000000000000000010000000000000400077
:2042f700000000000100000000000004000000000000100000600004810013100001100079
:2043170038ca0001004001e000000001040000000000060000000000001004000000000043
:0d4337004000a00000000108e3800000002d
:20434400000000000000000000000000000000000000000000000000000000000000400019
:20436400000000000000000000000004000000000000004000204014108006500240100049
:20438400016050008040910000000001081000000000040f000000000010000000000000db
:0d43a40045000000000009a004000000001a
:2043b1000000000000000000000000000000000000000000000000000000000000000000ec
:2043d10000000000000000000000000400000000000400160060000050009281404c90408f
:2043f1000000000002c07807be0040d302c04000000314030f0000000c183c780000003067
:0d4411007cf9f0000000c38b4200000000a9
:20441e0000000000000000000000000000000000000000000000000000000000000000007e
:20443e0000000000000000000000000400000000000c0000000000058f00780000001080b2
:20445e000000000001400007740000910073c00000022c009c00000008114e240000002445
:0d447e0052b1e00000008114600000000059
:20448b00000000000000000000000000000000000000000000000000000000000000000011
:2044ab0000000000000000000000000000000000000040000140000000009e8000002c0026
:2044cb0021685e00000000eb2578000062402591a0000b09009f57800006a0616b5e00020e
:0d44eb00821803b578000001e7a5bd140894
:2044f8000000000000000000000000000000000000000000000000000000000000000000a4
:20451800000000000000000000000000000000000000000000204000000058140200a0bc59
:2045380040fa2e000000000b70b8000a0063edf3f00028070c9e0b8000403c00de2e00009f
:0d4558000100053cb80000c26014c505005c
:20456500000000000000000000000000000000000000000000000000000000000000000036
:2045850000000000000000000000000000000000000600a070c02010001cdb00000600040f
:2045a50001784302183881a361fdc9600a13ae85e00190070f8690c0872026045c43021806
:0d45c500000003f10c08700a0016ed160846
:2045d2000000000000000000000000000000000000000000000000000000000000000000c9
:2045f200000000000000000000000000000000000008011c000000000010f8280048800e7e
:20461200000043002038110f83fd0080f04435b2e00230579c1020c009086e3800430021a2
:0d463200200400410c00801040059a040097
:20463f0000000000000000000000000000000000000000000000000000000000000000005b
:20465f0000000000000000000000000000000000000f1c8001c0000100001e80020c80049e
:20467f0000f95e003000300bf81000c411e01ee4302361000e1297800c001605e87f62318e
:0d469f00061095f97800c4000040000000ee
:2046ac000000000000000000000000000000000000000000000000000000000000000000ee
:2046cc0000000000000000000000000000000000000510403c2008000000b814020804003b
:2046ec00006f2e002000000d389000881b6382043002000f10f20b8008a0023dd0ff782272
:0d470c000e09efb0b80048000340000000a7
:20471900000000000000000000000000000000000000000000000000000000000000000080
:20473900000000000000000000000000000000000000100061e04020091a00000000401e2e
:2047590004fc4202000580e53578000200074587f524000900d7108080014002cb420000b7
:0d477900088017a908080001e004f01214e0
:20478600000000000000000000000000000000000000000000000000000000000000000013
:2047a6000000000000000000000000000000000000001000400000000b90000000002002e6
:2047c6002fe001000000f10b24b8000e0007540ff4000001803800400000a43ce8010000bd
:0d47e6000010eb4008000003e01cd00100b3
:2047f3000000000000000000000000000000000000000000000000000000000000000000a6
:20481300000000000000000000000000000000000000008000e004500001000000000006ca
:2048330002ec7f520000b897690c081400071cd500000041807b1fda800020076f5e000025
:0d48530000b9a129fd280020024ee001104f
:20486000000000000000000000000000000000000000000000000000000000000000000038
:20488000000000000000000000000000000000000000817c24000048010c00000000000c96
:2048a00001c0ff608000b080010c0000100417b10000001000903fd020001c34792e000079
:0d48c00000700743fd040800439e8011189e
:2048cd000000000000000000000000000000000000000000000000000000000000000000cb
:2048ed00000000000000000000000000000000000000000e01600040500000000000206428
:20490d00700000000000381000000000020000000000002b9c13d784000064000000000037
:0d492d0028d80b3d780000c003aeea0090d2
:20493a0000000000000000000000000000000000000000000000000000000000000000005d
:20495a00000000000000000000000003000000000000002400208000000000000000002c4a
:20497a0038000000000018e00000000002c200000000131b90768b800006be000000000026
:0d499a0000509f68b8000000432e0001107f
:2049a7000000000000000000000000000000000000000000000000000000000000000000f0
:2049c7000000000000000000000000000000000000000000006000000000000000000e0062
:2049e70000000000000090100000000000000000000000081c00000000009e00000000004e
:0d4a07000051e00000000403c20ca5e020f7
:204a1400000000000000000000000000000000000000000000000000000000000000000082
:204a340000000000000000000000000000400000000000002020400000000000000006009c
:204a540038000000000078e00000000001c240000000008310000000008040380000000222
:0d4a74008209000000000862c40f01d0009c
:204a8100000000000000000000000000000000000000000000000000000000000000000015
:204aa100000000000000000000000000500000000006001e00e0100010010000000c000470
:204ac1007800000032008000000000c21007800000032a50000000000c403c00000000311c
:0d4ae1000210f0000000c4000387e4302044
:204aee000000000000000000000000000000000000000000000000000000000000000000a8
:204b0e000000000000000000000000002000000000040a0000000000000e000000080a0237
:204b2e00400000002018b0000000008400038000000250250000000008a0060000000022f1
:0d4b4e000498e00000008a0004010430809b
:204b5b0000000000000000000000000000000000000000000000000000000000000000003a
:204b7b00000000000000000000000000000000000000002101600408038000000000000009
:204b9b000000000008807807ed4000000203a7a5e00000081e13d78000401c79585e000278
:0d4bbb008071c1f178001002403dc5e0049a
:204bc8000000000000000000000000000000000000000000000000000000000000000000cd
:204be800000000000000000000000000000000000000182400000000200000000000000051
:204c0800000000000000080f6880000842c7bc92e000000710be474000288260fa1d0100d0
:0d4c28000000eb64b8001083c31682e000aa
:204c350000000000000000000000000000000000000000000000000000000000000000005f
:204c5500000000000000000000000000000000000006a00100e02028200000000000000050
:204c750000000000180091e5a868006015c021a054018020013e90c080402021f81a0018dc
:0d4c9500009801f90c0800a1c016e5e2002e
:204ca2000000000000000000000000000000000000000000000000000000000000000000f2
:204cc200000000000000000000000000000000000008000000000001c000000000000c00fd
:204ce2000000000020101807acfc008008202c00a482004f0d0810c000211c43483f002066
:0d4d0200009800410c000000003de1d000d1
:204d0f00000000000000000000000000000000000000000000000080000000000000000004
:204d2f00000000000000000000000000000000000001400005c02008200000000000a00076
:204d4f000000000030009015e10c084001c607a5e00318400eb7468000435c01ca5e083001
:0d4d6f000a01a9246800041403a7e0020053
:204d7c00000000000000000000000000000000000000000000000000000000000000000017
:204d9c00000000000000000000000000000000000001a00024000000100f00000000008093
:204dbc0000000000200018d0010c0000c02004b2e00210e010facfc000a00f3d5e1d00203a
:0d4ddc0000010774fc000aa803dce80200d7
:204de9000000000000000000000000000000000000000000000000000000000000000000aa
:204e0900000000000000000000000020000000000000002000e00400000000000000000065
:204e2900000000000805f9a1b1fd8a02644001a0540002010e9f9080800600004b1a200420
:0d4e490028000b39080804826397a5e020bb
:204e560000000000000000000000000000000000000000000000000000000000000000003c
:204e76000000000000000000000000100000000000000c0c002000000000000000000000d4
:204e9600000000000032f9b543fd0004cbe02c00a400000010b00040000200036e3f0004a7
:0d4eb6000000034004000ad0c40501d01024
:204ec3000000000000000000000000000000000000000000000000000000000000000000cf
:204ee300000000000010000000000000000000000000001e01400000080012814040000025
:204f0300000000000000001964680004a00797c5e00001019c7b1fd480000001485e00008f
:0d4f2300009817b1fd280410e03ca5e00047
:204f3000000000000000000000000000000000000000000000000000000000000000000061
:204f50000000000000080000000000000000000000000000002080000b00f4000200480050
:204f700000000000010000a37cfc0008024394c2e20000001e183fd200400c017f1d00024e
:0d4f900000f0fd03fd810a080257b2e000a9
:204f9d000000000000000000000000000000000000000000000000000000000000000000f4
:204fbd00000000000000000000000000000000000000806005c000000000000000000140ee
:204fdd0000000000000000000000000c00678da05400035508d7d7840009400400000001e0
:0d4ffd002578900000001001e02de0021466
:20500a00000000000000000000000000000000000000000000000000000000000000000086
:20502a000000000000000000000000000000000000000e3c282080010000000000000080d3
:20504a00000000000000b0000000000a02440200540000008e3f8740004180300000000269
:0d506a000201c000000010000006c012800e
:20507700000000000000000000000000000000000000000000000000000000000000000019
:20509700000000000000000000000000000000000001408070c0000000081281400000002d
:2050b70000000000000001e00000000009c21ddad00011000100000000040e714b5e000028
:0d50d7000000e00000000000e7d6e5e0a0ca
:2050e4000000000000000000000000000000000000000000000000000000000000000000ac
:205104000000000000a0000000000000000000000001a10400000400001034000800008075
:2051240000000000000095000000000007c03cc2e00000000c000000000026416d1d000133
:0d5144002800000000000001c22501d0007d
:2051510000000000000000000000000000000000000000000000000000000000000000003e
:2051710000000000000000000000000000000000000c000e00404020000000000000c000a4
:2051910000000000300001a0000000c001c39dffc00341090b00000000002400000000329f
:0d51b10080f0e0000000201440000000002d
:2051be000000000000000000000000000000000000000000000000000000000000000000d1
:2051de0000000000000000000000000000000000000c000100000023000000000000000081
:2051fe00000000002000f10000000004800024ca400240011a00000000203e0000000022f1
:0d521e00845800000000000860000000003f
:20522b00000000000000000000000000000000000000000000000000000000000000000063
:20524b00000000000000000000000000001f93868200400001604000001fd21780000024fc
:20526b00714904000000000bf578020001e000000000281f0edbab4000840070fc0540209a
:0d528b0000109f6bf080806846009d1500ac
:205298000000000000000000000000000000000000000000000000000000000000000000f6
:2052b800000000000000000000000000001f7b8fc000206400000000000e7f4b800000be53
:2052d800015a24000020000760b80000002000000000120700ff4740000e0034100558008a
:0d52f8000a39b9ea90001013e2ddae24007f
:20530500000000000000000000000000000000000000000000000000000000000000000088
:20532500000000000000000000000180000036178006080001600180000000000006416083
:2053450000d87f529800001f75780008b2002dc0a001c00f80170fc0860020021a507019e3
:0d53650000d801ab3c00640a0705cb8000b6
:2053720000000000000000000000000000000000000000000000000000000000000000001b
:205392000000000000000000000002000f00db0b8008041c0020420000000000000800846e
:2053b20002e0ff40e00070fb70b8200403c26c00f002400d0c742fc008000c02d0a040205e
:0d53d200801091a5280088104435fb500084
:2053df000000000000000000000000000000000000000000000000000000000000000000ae
:2053ff0000000000000000000000030000007e90c08c140e01e0411100185217800c0024ab
:20541f00037a5e003400780bf178010084c3a5b5e00100101e3281580c0000001c05403316
:0d543f00003805f0fc08401fc255c7e020f2
:20544c00000000000000000000000000000000000000000000000000000000000000000040
:20546c000000000000000000000002000f080010c0041000002001000008fecb800808168b
:20548c0001e82e003282080f68b80000024025d2e00300071f08015005040000d00a7131de
:0d54ac0010380142fc00c40f63ac0fe0009b
:2054b9000000000000000000000000000000000000000000000000000000000000000000d3
:2054d9000000000000000000000000002000bf1fdcc01020714004101000073c1000223e61
:2054f90005ee5e00012800000000000200e05ca010302001c097b680000a56220850500023
:0d551900b8981fa1fc0000006701ac5020f5
:20552600000000000000000000000000000000000000000000000000000000000000000065
:20554600000000000000000000000000530fd83fd000102c000000004000043c1000403eb2
:205566002de82e00020000000000000003e3fc08100010400912388000008242d0a041410d
:0d5586000550d1e97c00000404250ca000b4
:205593000000000000000000000000000000000000000000000000000000000000000000f8
:2055b300000000000000000000000010278157010000000038c000000801521788000a1cb0
:2055d3002cde4302000001c033c10000020020b58000280009bb9f8080003404dc05410078
:0d55f3000638187314080e1003a7ca000034
:2056000000000000000000000000000000000000000000000000000000000000000000008a
:20562000000000000000000000000028100ff6490000000020208020070e7f0b80000202e1
:2056400020104300000270e043c1000001c004ca400420001b1c3f8000a40e3c1005c004d1
:0d5660000208810328000a1806470fa00069
:20566d0000000000000000000000000000000000000000000000000000000000000000001d
:20568d00000000000000000000000000081d00000000290000e020080000000000000c009b
:2056ad0000000000000059b9b578000080038f80538400201906b44081808e321a50400295
:0d56cd003810bdb280000421e614ea34203c
:2056da000000000000000000000000000000000000000000000000000000000000000000b0
:2056fa00000000000000000000000000010d0000000040bc0000001000090000000020004d
:20571a00000000000000f0fbf0b8020002438000500000401990388040a10002c0a061017f
:0d573a0004008343d4000aa003c00a340019
:20574700000000000000000000000000000000000000000000000000000000000000000042
:205767000000000000000000000000008108000000014c8001c04000070e00000000401e58
:2057870000000000003070ebf1780000086025a8010069100192eb4040010000e8504000e8
:0d57a700a400f8328d082000e72de8b000c6
:2057b4000000000000000000000000000000000000000000000000000000000000000000d5
:2057d4000000000000000000000000000b8000000001203c00000000000000000000a03eef
:2057f400000000000000000370b80010440314b0000070ab087647400040c0003050690343
:0d5814000200e7014d000008262f85b000be
:20582100000000000000000000000000000000000000000000000000000000000000000067
:205841000000000000000000000003000f000000000400000440031017000000000c005c5b
:205861003c000000300011e000000008000015aa000b90d39e0000000c0c00021850403005
:0d5881000238c3e3d504c0000004e3f020aa
:20588e000000000000000000000000000000000000000000000000000000000000000000fa
:2058ae000000000000000000000002000780000000040a003800060280000000000800007b
:2058ce0078000000200008000000000400000600019008201000000000404002c0a0e04243
:0d58ee00840903828100000002070bf00016
:2058fb0000000000000000000000000000000000000000000000000000000000000000008d
:20591b000000000000000000000000000000000000000000014008002000000000000040c3
:20593b00000000000000300de468201201e03ce800006000189681400800203ddfad0002ca
:0d595b00b40085b1780002340006ead000e7
:2059680000000000000000000000000000000000000000000000000000000000000000001f
:20598800000000000000000000000000000000000000100000000000000000000000088067
:2059a800000000000038080570fc0010042036a0000040200f9c294000001c3c4b2e0002dd
:0d59c8000191d168b84004c2c23d82e000e8
:2059d5000000000000000000000000000000000000000000000000000000000000000000b2
:2059f500000000000000000000000000000000000006000004c08000000000000000000c3c
:205a1500000000000000118b6c68000200e007a80081800800369fd4870a2003dc3f0218d5
:0d5a350000f00564810060e0c03de3f0205a
:205a4200000000000000000000000000000000000000000000000000000000000000000044
:205a6200000000000000000000000000000000000008043c3c20000100000000000000007f
:205a82000000000000009909b4fc0004c0239fb0000200090e583fd449000403707f002099
:0d5aa20010b8c962d5008000c3dd07f20016
:205aaf000000000000000000000000000000000000000000000000000000000000000000d7
:205acf0000000000000000000000000000000000000205c001e00001000000000001000409
:205aef000000000004800005f108080001c06ee80083084800fe868004008421eed10210a5
:0d5b0f008219c1a00d804001e017e0560092
:205b1c00000000000000000000000000000000000000000000000000000000000000000069
:205b3c000000000000000000000000000000000000000144002004001000000000010002cd
:205b5c00000000000000000f800400000023b6a0000202a70e1b0fc00401024030d1003101
:0d5b7c00080103754d0044a3c201005c0048
:205b89000000000000000000000000000000000000000000000000000000000000000000fc
:205ba900000000000000000000000000000000000000800100e0001000000000000000006b
:205bc9000400000000001809b9780000000395b800001003013a1780000000254aa342815c
:0d5be900b838876c81000482000f98b0006e
:205bf60000000000000000000000000000000000000000000000000000000000000000008f
:205c160000000000000000000000000000000000000000000020040000000000000000004a
:205c36003c000000000058c120b800000807ddb00008080f0ed7c74000003c7c20a34002bd
:0d5c5600809509e2d5200211c02f85b00015
:205c6300000000000000000000000000000000000000000000000000000000000000000021
:205c8300000000000000000000000000000000000000a00021c00020200000000000000040
:205ca30004000000010000000000000208003ee80000414001000000008e0603eca0000403
:0d5cc3000480f9a40d800035e794a7e020cf
:205cd0000000000000000000000000000000000000000000000000000000000000000000b4
:205cf000000000000000000000000000000000000000400020001000000000000000020022
:205d100024000000020000f00000000a000034a000106029080000000040460060fa0004fa
:0d5d300020f081714d000008241d0fe000df
:205d3d00000000000000000000000000000000000000000000000000000000000000000046
:205d5d00000000000000000000000000000000000000000001e00000000000000000000045
:205d7d0000000000000010e00000000001e795b80200000000000000004100760aa3420633
:0d5d9d000080116c812000e06260ac50209d
:205daa000000000000000000000000000000000000000000000000000000000000000000d9
:205dca00000000000000000000000000000000000000000020204000000000000000000039
:205dea00000000000000f80000000000402405c0000000010000000000800022c053410180
:0d5e0a00001089a2d5001000020c0ca000b1
:205e1700000000000000000000000000000000000000000000000000000000000000000467
:205e37000000000000000000000000000000000000002c0000c000138000000000010e00bd
:205e570000000000040010e000000000000066e80000005000000000002020765aad0000dc
:0d5e7700001189a40d000429c7cfe05400dc
:205e84000000000000000000000000000000000000000000000000000000000000000000fe
:205ea4000000000000000000000000000000000000000004002004080000000000000c00a2
:205ec40000000000000009000000000009c3b4a0000400200800000000008c63ec1d000071
:0d5ee400000007754d8000ac0603005c80d7
:205ef100000000000000000000000000000000000000000000000000000000000000000091
:205f1100000000000000000000000000000000000004000024600000000000000000800068
:205f310002cb04100000000000000000020055b800030000000000000c00003c00000030e5
:0d5f5100043187bc8100c04a02fd8ad000e7
:205f5e00000000000000000000000000000000000000000000000000000000000000000023
:205f7e00000000000000000000000000000000000004000078208001800000000000000066
:205f9e00006b2400000104000000000003c35df0010203800e00000000003c380000000034
:0d5fbe00000009a2d5010013c786c2e00053
:205fcb000000000000000000000000000000000000000000000000000000000000000000b6
:205feb00000000000000000000000200078000000000c00c00400810200057a800080100c1
:20600b0030000000040081a33468000810e036a5e00000a81d5f010008042c06ebad0000d3
:0d602b000711900000000015e007e0550887
:20603800000000000000000000000000000000000000000000000000002000000000000028
:20605800000000000000000000000000000000000000a0242000000840087c0282100000e4
:2060780000000000040011a5b0fc0004002034d1d0000345185b090000001c36d91d00405d
:0d6098000100f00000000a000002005c00a2
:2060a5000000000000000000000000000000000000000000000000000000000000000000db
:2060c500000000000000000000000180000000000006000000c00800000000000006000066
:2060e500001a0f401802000000000000020007a1a001800f801a1fd486803606feb80018a1
:0d61050000f1cfbeb400640207a1a50400a4
:20611200000000000000000000000000000000000000000000000000040000000000000069
:2061320000000000000000000000021000000000000800000020000000000000000801000a
:2061520000100fc0200400000000004003c35783f002000180743fd21841063f4bb5002094
:0d61720000190bfc74008a00c01c0a0d000f
:20617f00000000000000000000000000000000000000000000000000000000000000000000
:20619f00000000000000000000000000200000000004100005c008000001000000000000de
:2061bf00005a050033821007a0140004500200000003415b801281400d200065783f02103e
:0d61df000401e1a0fc08c010000fe0550015
:2061ec00000000000000000000000000000000000000000000000000000000000000000093
:20620c00000000000000000000000000500000000004100034200000000f00000000420069
:20622c0000200501200500074168000247c00000000203a7801816800c00003a40bf0030ff
:0d624c008c0109c2fc0040180000005c80bd
:20625900000000000000000000000000000000000000000000000400000000000000000021
:206279000000000000c0000000000000000000000000100000c00400000000000000002051
:20629900616e00228030000921fd8a040002000000001080010000000040207c4ad1020003
:0d62b90000801362b4000000e021c50480e5
:2062c600000000000000000000000000000000000000000000000c000000000000000000ac
:2062e600000000000000000000000000000000000000100000000000000000000000000484
:2063060000f002000000000b43fd231201c00000000020000a00000000862c3c10d100004b
:0d63260008d0e32074000000201d0a0c10b8
:2063330000000000000000000000000000000000000000000000000000000000000000004a
:20635300000000000000000000000000000000000000000005c00400001e0000000000063d
:2063730002eeaf41000010e00000000014004000000002881c9b068000a480045ea34200b4
:0d63930090f801b8150000e80205e0540480
:2063a0000000000000000000000000000000000000000000000000000000000000000000dd
:2063c000000000000000000000000000000000000000000438000000011000000000000070
:2063e00003d00540001809000000000000030000000020090077cfc00000002810a3400017
:0d64000002f8000017040a0c06800054008a
:20640d0000000000000000000000000000000000000000000000000000000000000000006f
:20642d0000000000000000000000000000000000000001400040080007007b2800004006d6
:20644d00041cf0400000008000000000e1e000000000000100000000000004644ca0010444
:0d646d000500fff6b4001409c0218504806d
:20647a00000000000000000000000000000000000000000000000000000000000000000002
:20649a0000000000000000000000000000000000000000a4000000018080b80000408000c5
:2064ba002010f040000010000000000400000000000040808000000000003e37d0fa0004cb
:0d64da000001856c74020810021c0a040009
:2064e700000000000000000000000000000000000000000000000000010000000000000094
:20650700000000000000000000000000000010169400002001400401038000000000001eb3
:206527003e00a548010258000000000020000ef5e00000001c00000000004020fea342026a
:0d6547008801e7b815020a00000de05400bd
:20655400000000000000000000000000000000000000000000000000000000000000000027
:2065740000000000000000000000000000000016b000002c20200040008900000000000309
:2065940063405a504085000000000000a0033581d000200510000000000a803830a3408121
:0d65b40038710000170000f41002005c08b0
:2065c10000000000000000000000000000000000000000000000000000026805000000004b
:2065e10000000000000000000000030000000000000c000e00e00000005f13e0001c8400ab
:2066010079dea060300000000000000a0000000000030001000000000c401c067af5403097
:0d66210005b9e376b400c4000221e50410c1
