:02000000ff00ff
:080002004c6174746963650030
:17000a00694345637562653220323032302e31322e32373934330071
:15002100506172743a2069434534304c50384b2d434d3831003f
:1b003600446174653a2053657020313120323032332031373a31383a3231007e
:0200510000ffae
:040053007eaa997e6a
:02005700510056
:0200590001059f
:03005b00920020f0
:03005e00620367d3
:0300610072011019
:0300640082000017
:02006700110086
:02006900010193
:20006b000000000000000000000000000000000000000000000000800000000000000000f5
:20008b00000000000000000000000000000000000000000000000000000000000000000055
:2000ab00000000000000000000000000000000000000000000000000000000000000000035
:0d00cb000000000000000000000000000028
:2000d800000000000000000000000000000000000000000000000000000000000000000008
:2000f8000000000000000000000000000000000000000000000000000000000000000000e8
:200118000000000000000000000000000000000000000000000000000000000000000000c7
:0d01380000000000000000000000000000ba
:200145000000000000000000000000000000000010000000000000400b000000000000003f
:2001650000000000000000000000000000000000000000000000000000000000000000007a
:2001850000000000000000000000000000000000000000000000000000000000000000005a
:0d01a5000000000000000400d00000000079
:2001b20000000000000000000000000000000000000000000000000000000000000000002d
:2001d20000000000000000000000000000000000000000000000000000000000000000000d
:2001f2000000000000000000000000000000000000000000000000000000000000000000ed
:0d02120000000000000000000000000000df
:20021f0000000000000000000000000000000000000000000000008000000300000000003c
:20023f0000000000000000000000000000000000000000000000000000000000000000009f
:20025f0000000000000000000000000000000000000000000000000000000000000000007f
:0d027f000000000000000000000000000072
:20028c00000000000000000000000000000000000000000000000000000001000000000051
:2002ac00000000000000000000000000000000000000000000000000000000000000000032
:2002cc00000000000000000000000000000000000000000000000000000000000000000012
:0d02ec000000000000000000000000000005
:2002f900000000000000000000000000000000000003c040000000000000000000000000e2
:200319000000000000000000000000000000000000000000000000000000000000000000c4
:200339000000000000000004000000000000000000000000000000000000000000000000a0
:0d035900000000000000080000000000008f
:20036600000000000000000000000000000000002000000000000000000000000000000057
:20038600000000000000000000000000000000000000000000000000000000000000000057
:2003a600000000000000000000000000000000000000000000000000000000000000000037
:0d03c600000000000000000000000000002a
:2003d30000000000000000000000000000000000000000c000000000000200000000000048
:2003f3000000000000000000000000000000000000000000000000000000000000000000ea
:200413000000000000000008000000000000000000000000000000000000000000000000c1
:0d04330000000000000000000010000000ac
:2004400000000000000000000000000000000000000000000000000000000000000000009c
:2004600000000000000000000000000000000000000000000000000000000000000000007c
:2004800000000000000000000000000000000000000000000000000000000000000000005c
:0d04a000000000000000000000000000004f
:2004ad0000000000000000000000000000000000000000010000000000000100000000002d
:2004cd0000000000000000000000000000000000000000000000000000000000000000000f
:2004ed000000000000000000000000000000000000000000000000000000000000000000ef
:0d050d00000000000000000000000c0000d5
:20051a00000000000000000000000000000000001000000100000080000000000000000030
:20053a000000000000000000000000000000000000000000000000000000000000000000a1
:20055a00000000000000000000000000000000000000000000000000000000000000000081
:0d057a000000000000000000000004000070
:20058700000000000000000000000000000000001000000000000000000000000000000044
:2005a700000000000000000000000000000000000000000000000000000000000000000034
:2005c700000000000000000000000000000000000000000000000000000000000000000014
:0d05e7000000000000000000000000000007
:2005f400000000000000000000000000000000001000000000000040000000000000000097
:200614000000000000000000000000000000000000000000000000000000000000000000c6
:20063400000000000100001000000000000000000000000000000000000000000000000095
:0d0654000000000000000000000000000099
:200661000000000000000000000000000000000000000040000000000f0100000000000029
:20068100000000000000000000000000000000000000000000000000000000000000000059
:2006a100000000000000000000000000000000000000000000000000000000000000000039
:0d06c100000000020000000000100000001a
:2006ce0000000000000000000000000000000000200000000000008000000000000000006c
:2006ee000000000000000000000000000000000000000000000000000000000000000000ec
:20070e000000000000000000000000000000000000000000000000000000000000000000cb
:0d072e0000000000000000000000000000be
:20073b0000000000000000000000000000000000000000000000000000000000000000009e
:2014db00400000000000000000000000000000000800000000000080000000000000000029
:2014fb000000000000000000000000000000000000000000000000000000000000000000d1
:20151b000000000000000000000000000000000000000000000000000000000000000000b0
:0d153b0000000000000000000000000000a3
:20154800000200000000000000000000000000000000000000000000000000000000000081
:20156800000000000000000000000000000000000000000000000000000000000000000063
:20158800000000000000000000000000000000000000000000000000000000000000000043
:0d15a8000000000000000000000000000036
:2015b500000000000000000000000000000000000000000000000000000000000000000016
:2015d5000000000000000000000000000000000000000000000000000000000000010000f5
:2015f5000000000000000000000000000000000000000000000000000000000000000000d6
:0d16150000000000000000000000000000c8
:20162200800000000000000000000000000000000000000000000000000000000000000028
:20164200000000000000000000000000000000000000000000000000000000000000000088
:20166200000000000000000000000000000000000000000000000000000000000000000068
:0d168200000000000000000000000000005b
:20168f004c00000000000000000000000000000000000000000002000000000000000000ed
:2016af0000000000000000000000000000000000000000000000000000000000000000001b
:2016cf000000000000000000000000000000000000000000000000000000000000000000fb
:0d16ef0000000000000000000000000000ee
:2016fc000800000000000000000000000000000000000000000000000000000000000000c6
:20171c000000000000000000000000000000000000000000000000000000000000000000ad
:20173c0000000000000000000000000000000000000000000000000000000000000000008d
:0d175c000000000000000000000000000080
:2017690000010000000000000000000000000000000000000000000000000000000000005f
:20178900000000000000000000000000000000000000000000000000000000000000000040
:2017a900000000000000000000000000000000000000000000000000000000000000000020
:0d17c9000000000000001000000000000003
:2017d6000000000000000000000000000000000000500000000000000000000000000000a3
:2017f6000000000000000000000000000000000000000000000000000000000000000000d3
:201816000000000000000000000000000000000000000000000000000000000000000000b2
:0d18360000000000000000000000000000a5
:20184300000000000000000000000000000000000000000000000000000000000000000085
:20186300000000000000000000000000000000000000000000000000000000000000000065
:20188300000000000000000000000000000000000000000000000000000000000000000045
:0d18a3000000000000000000000000000038
:2018b0000038000000000000000000000000000000000000000000000000000000000000e0
:2018d0000000000000000000000000000000000000000000000000000000000000000000f8
:2018f0000000000000000000000000000000000000000000000000000000000000000000d8
:0d19100000000000000000000000000000ca
:20191d00440000000000000000000000000000000000000000000000000000000000000066
:20193d0000000000100000000000000000000000000000000000000000000000000000007a
:20195d0000000000000000000000000000000000000000000000000000000000000000006a
:0d197d00000000000000000000000000005d
:20198a00080000000000000000000000000000000000000000000000000000000000000035
:2019aa0000000000000000000000000000000000000000000000000000000000000000001d
:2019ca000000000000000000000000000000000000000000000000000000000000000000fd
:0d19ea0000000000000000000000000000f0
:2019f7000030000000000000000000000000000000000000000000000000000000000000a0
:201a17000000000000000000000000000000000000000000000000000000000000000000af
:201a370000000000000000000000000000000000000000000000000000000000000000008f
:0d1a57000000000000000000000000000082
:201a64008000000000000000000000000000000000000000000000000000000000000000e2
:201a8400000000000000000000000000000000000000000000000000000000000000000042
:201aa400000000000000000000000000000000000000000000000000000000000000000022
:0d1ac4000000000000000000000000000015
:201ad1004000000000000000000000000000000000000000000000000000000000000000b5
:201af1000000000000000000000000100000000000000000000000000000000000000000c5
:201b11000000000000000000000000000000000000000000000000000000000000000000b4
:0d1b310000000000000000000000000000a7
:201b3e00000000000000000000000000000000000000000000000000000000000000000087
:201b5e0000000000000000000000000800000000000000000000000000000000000000005f
:201b7e00000000000000000000000000000000000000000000000000000000000000000047
:0d1b9e00000000000000000000000000003a
:201bab0000000000000000000000000000000000000000000000000000000000000000001a
:201bcb000000000000000000000000000000000000000000000000000000000000000000fa
:201beb000000000000000000000000000000000000000000000000000000000000000000da
:0d1c0b0000000000000000000000000000cc
:201c18000000000000000000000000000000000000000000000000000000000000000000ac
:201c380000000000000000000000000000000000000000000000000000000000000000008c
:201c580000000000000000000000000000000000000000000000000000000000000000006c
:0d1c7800000000000000000000000000005f
:201c850000000000000000000000000000000000000000000000000000000000000000003f
:201ca50000000000000000000000000000000000000000000000000000000000000000001f
:201cc5000000000000000000000000000000000000000000000000000000000000000000ff
:0d1ce50000000000000000000000000000f2
:201cf2000000000000000000000000000000000000000000000000000000000000000000d2
:201d12000000000000000000000000000000000000000000000000000000000000000000b1
:201d3200000000000000000000000000000000000000000000000000000000000000000091
:0d1d52000000000000000000000000000084
:201d5f00000000000000000000000000000000000000000000000000000000000000000064
:201d7f00000000000000000000000000000000000000000000000000000000000001000043
:201d9f00000000000000000000000000000000000000000000000000000000000000000024
:0d1dbf000000000000000000000000000017
:201dcc000000000000000000000000000000000000000000000000000000000000000000f7
:201dec000000000000000000000000000000000000000000000000000000000000000000d7
:20227b00400000000000000000000000000000000000000000000000000000000000000003
:20229b00000000000000000000000000000000000000000000000000000000000000000023
:2022bb00000000000000000000000000000000000000000000000000020000000000000001
:0d22db0000000000000000000000000000f6
:2022e8000002000000000000000000000000000000000000000000000000000000000000d4
:202308000000000000000000000000000000000000000000000000000000000000000000b5
:20232800000000000000000000000000000000000000000000000000000000000000000095
:0d2348000000000000000000000000000088
:20235500000000380000000000000000000000000000000000000000000000000000000030
:20237500000000000000000000000000000000000000000000000000000000000000000048
:20239500000000000000000000000000000000000000000000000000000000000000000028
:0d23b500000000000000000000000000001b
:2023c20080000000000000000000000000000000000000000000000000000000000000007b
:2023e2000000000000000000000000000000000000000000000000000000000000000000db
:202402000000000000000000000000000000000000000000000000000000000000000000ba
:0d24220000000000000000000000000000ad
:20242f00480400000000000000000000000000004000000000000000000000000000000001
:20244f0000000000000000000000000000000000000000000000000000000000000000006d
:20246f0000000000000000000000000000000000000000000000000000000000000000004d
:0d248f000000000000000000000000000040
:20249c000838000000000000000000000000000040000000000000000000000000000000a0
:2024bc000000000000000000000000000000000000000000000000000000000000010000ff
:2024dc000000000000000000000000000000000000000000000000000000000000000004dc
:0d24fc0000000000000000000000000000d3
:2025090000030000000000000000000000000000400000000000000000000000000000006f
:20252900000000000000000000000000000000000000000000000000000000000000000092
:20254900000000000000000000000000000000000000000000000000000000000000000072
:0d2569000000000000000000000000000065
:20257600000000000000000000100000000000000000000000000000000000000000000035
:20259600000000000000000000000000000000000000000000000000000000000001000024
:2025b600000000000000000000000000000000000000000000000000000000000000000005
:0d25d60000000000000000000000000000f8
:2025e300400000000000000000000000000000000000000000000000000000000000000098
:202603000000000000000000000000000000000000000000000000000000000000000000b7
:20262300000000000000000000000000000000000000000000000000000000000000000097
:0d264300000000000000000000000000008a
:2026500040000000000000000000000000000000000000000000000000000000000000002a
:2026700000000000000000000000000000000000000000000000000000000000000000004a
:2026900000000000000000000000000000000000000000000000000000000000000000002a
:0d26b000000000000000000000000000001d
:2026bd000000000000000000000000000000000000000000000000000000000000000000fd
:2026dd000000000000000000000000000000000000000000000000000000000000000000dd
:2026fd000000000000000000000000000000000000000000000000000000000000000000bd
:0d271d0000000000000000000000000000af
:20272a0000000000000000000000000000000000000000000000000000000000000000008f
:20274a0000000000000000000000000000000000000000000000000000000000000000006f
:20276a0000000000000000000000000000000000000000000000000000000000000000004f
:0d278a000000000000000000000000000042
:20279700000000000000000000000000000000000000000000000000000000000000000022
:2027b700000000000000000000000000000000000000000000000000000000000000000002
:2027d7000000000000000000000000000000000000000000000000000000000000000000e2
:0d27f70000000000000000000000000000d5
:20280400800000000000000000000000000000000000000000000000000000000000000034
:20282400000000000000000000000000000000000000000000000000000000000000000094
:20284400000000000000000000000000000000000000000000000000000000000000000074
:0d2864000000000000000000000000000067
:20287100000000000000000000000000000000000000000000000000000000000000000047
:202d4000000000000000000000000000004000000000000000000000000000000000000033
:202d6000000000000000000000000000000000000000000000000000000000000000000053
:0d2d80000000000000000000000000000046
:202d8d00000000000000000000000000000000000000000000000000000000000000000026
:202dad00000000000000000000000000000000000000000000000000000000000000000006
:202dcd000000000000000000000000000000000000000000000000000000000000000000e6
:0d2ded0000000000000000000000000000d9
:202dfa000000000000000000000000000000000000000000000000000000000000000000b9
:202e1a00000000000000000000000000000000000000000000000000000000000000000098
:202e3a00000000000000000000000000000000000000000000000000000000000000000078
:0d2e5a00000000000000000000000000006b
:202e670000000000000000000000000000000000000000000000000000000000000000004b
:202e870000000000000000000000000000000000000000000000000000000000000000002b
:202ea70000000000000000000000000000000000000000000000000000000000000000000b
:0d2ec70000000000000000000000000000fe
:202ed4000000000000000000000000000000000000000000000000000000000000000000de
:202ef4000000000000000000000000000000000000000000000000000000000000000000be
:202f140000000000000000000000000000000000000000000000000000000000000000009d
:0d2f34000000000000000000000000000090
:202f4100000000000000000000000000000000000000000000000000000000000000000070
:202f6100000000000000000000000000000000000000000000000000000000000000000050
:202f8100000000000000000000000000000000000000000000000000000000000000000030
:0d2fa1000000000000000000000000000023
:202fae00000000000000000000000000000000000000000000000000000000000000000003
:202fce000000000000000000000000000000000000000000000000000000000000000000e3
:202fee000000000000000000000000000000000000000000000000000000000000000000c3
:0d300e0000000000000000000000000000b5
:20301b0000680000000000000000000000000000000000000000002000000000000000000d
:20303b00000000000000000000000000000000000000000000000000000000000000000075
:20305b00000000000000000000000000000000000000000000000000000000000000000055
:0d307b000000000000000000000000000048
:20308800000200000000000000000000000000000000000000000000000000000000000026
:2030a800000000000000000000000000000000000000000000000000000000000000000008
:2030c8000000000000000000000000000000000000000000000000000000000000000000e8
:0d30e80000000000000000000000000000db
:2030f5000000000000000000000000000000000000000000000000000000000000000000bb
:2031150000000000000000000000000000000000000000000000000000000000000000009a
:20313500000000000400000000000000000000000000000000000000000000000000000076
:0d315500000000000000000000000000006d
:203162008000000000000000000000000000000000000000000000000000000000000000cd
:2031820000000000000000000000000000000000000000000000000000000000000000002d
:2031a20000000000000000000000000000000000000000000000000000000000000000000d
:0d31c2000000000000000000000000000000
:2031cf000000000000000000000000000000000000000000000000000000000000080000d8
:2031ef00000000000000000000000000000000000000000000000040000000000000000080
:20320f0000000000000000000000000000000000000000000000000000000000000000009f
:0d322f000000000000000000000000000092
:20323c008000000000000000000000000000000000000000000001000000000000000000f1
:20325c00000000000000000000000000000000000000000000000000000000000000000052
:20327c00000000000000000000000000000000000000000000000000000000000000000032
:0d329c000000000000000000000000000025
:2032a900000100000000000000000000000000000000000000000000000000000000000004
:2032c9000000000000000000000000000000000000000000000000000000000000000000e5
:2032e9000000000000000000000000000000000000000000000000000000000000000000c5
:0d33090000000000000000000000000000b7
:20331600000000000000000000000000000000000000000000000000000000000000000097
:20333600000000000000000000000000000000000000000000000000000000000000000077
:20335600000000000000000000000000000000000000000000000000000000000000000057
:0d337600000000000000100000000000003a
:2033830000000000000000000000000000000000000000000000000000000000000000002a
:2033a30000000000000000000000000000000000000000000000000000000000000000000a
:2033c3000000000000000000000000000000000000000000000000000000000000000000ea
:0d33e30000000000000000000000000000dd
:2033f0000002000000000000000000000000000000000000000000000000000000000000bb
:2034100000000000000000000000000000000000000000000000000000000000000000009c
:2034300000000000000000000000000000000000000000000000000000000000000000007c
:0d345000000000000000000000000000006f
:20345d0040000000000000000000000000000000000000000000000000000000000000000f
:20347d0000000000000000000000000000000000000000000000000000000000000000002f
:20349d0000000000000000000000000000000000000000000000000000000000000000000f
:0d34bd000000000000000000000000000002
:2034ca000800000000000000000000000000000000000000000000000000000000000000da
:2034ea000000000000000000000000000000000000000000000000000000000000000000c2
:20350a000000000000000000000000000000000000000000000000000000000000000000a1
:0d352a000000000000000000000000000094
:20353700000000000000000000000000000000000000000000000000000000000000000074
:20355700000000000000000000000000000000000000000000000000000000000000000054
:20357700000000000000000000000000000000000000000000000000000000000000000034
:0d3597000000000000000000000000000027
:2035a400800000000000000000000000000000000000000000000000000000000000000087
:2035c4000000000000000000000000000000000000000000000000000000000000000000e7
:2035e4000000000000000000000000000000000000000000000000000000000000000000c7
:0d36040000000000000000000000000000b9
:20361100400000000000000000000000000000000000000000000000000000000000000059
:20363100000000000000000000000000000000000000000000000000000000000000000079
:20365100000000000000000000000000000000000000000000000000000000000000000059
:0d367100000000000000000000000000004c
:20367e0000000000000000000000000000000000000000000000000000000000000000002c
:20369e0000000000000000000000000000000000000000000000000000000000000000000c
:2036be000000000000000000000000000000000000000000000000000000000000000000ec
:0d36de0000000000000000000000000000df
:2036eb000000000000000000000000000000000000000000000000000000000000000000bf
:20370b0000000000000000000000000000000000000000000000000000000000000000009e
:20372b0000000000000000000000000000000000000000000000000000000000000000007e
:0d374b000000000000000000000000000071
:20375800000000000000000000000000000000000000000000000000000000000000000051
:20377800000000000000000000000000000000000000000000000000000000000000000031
:20379800000000000000000000000000000000000000000000000000000000000000000011
:0d37b8000000000000000000000000000004
:2037c5000000000000000000000000000000000000000000000000000000000000000000e4
:2037e5000000000000000000000000000000000000000000000000000000000000000000c4
:203805000000000000000000000000000000000000000000000000000000000000000000a3
:0d3825000000000000000000000000000096
:20383200000000000000000000000000000000000000000000000000000000000000000076
:20385200000000000000000000000000000000000000000000000000000000000000000056
:20387200000000000000000000000000000000000000000000000000000000000000000036
:0d3892000000000000000000000000000029
:20389f00000000000000000000000000000000000000000000000000000000000000000009
:2038bf000000000000000000000000000000000000000000000000000000000000000000e9
:2038df000000000000000000000000000000000000000000000000000000000000000004c5
:0d38ff0000000000000000000000000000bc
:20390c0000000000000000000000000000000000000000000000000000000000000000009b
:20392c0000000000000000000000000000000000000000000000000000000000000000007b
:20394c0000000000000000000000000000000000000000000000000000000000000000005b
:0d396c00000000000000000000000000004e
:2039790000000000000000000000000000000000000000000000000000000000000000002e
:2039990000000000000000000000000000000000000000000000000000000000000000000e
:2039b9000000000000000000000000000000000000000000000000000000000000000000ee
:0d39d90000000000000000000000000000e1
:2039e6000000000004000000000000000000000000000000000000000000000000000000bd
:203a06000000000000000000000000000000000000000000000000000000000000000000a0
:203a2600000000000000000000000000000000000000000000000000000000000000000080
:0d3a46000000000000000000000000000073
:203a5300000000000000000000000000000000000000000000000000000000000000000053
:203a7300000000000000000000000000000000000000000000000000000000000000000033
:203a9300000000000000000000000000000000000000000000000000000000000000000013
:0d3ab3000000000000000000000000000006
:203ac0000000000000000000000000000000000000000000000000000000000000000000e6
:203ae0000000000000000000000000000000000000000000000000000000000000000000c6
:203b00000000000000000000000000000000000000000000000000000000000000000000a5
:0d3b20000000000000000000000000000098
:203b2d00000000000000000000000000000000000000000000000000000000000000000078
:203b4d00000000000000000000000000000000000000000000000000000000000000000058
:203b6d00000000000000000000000000000000000000000000000000000000000000000038
:0d3b8d00000000000000000000000000002b
:203b9a0000000000000000000000000000000000000000000000000000000000000000000b
:203bba000000000000000000000000000000000000000000000000000000000000000000eb
:203bda000000000000000000000000000000000000000000000000000000000000000000cb
:0d3bfa0000000000000000000000000000be
:203c070000000000000000000000000000000000000000000000000000000000000000009d
:203c270000000000000000000000000000000000000000000000000000000000000000007d
:203c470000000000000000000000000000000000000000000000000000000000000000005d
:0d3c67000000000000001000000000000040
:203c7400000000000000000000000000000000000000000000000000000000000000000030
:203c9400000000000000000000000000000000000000000000000000000000000000000010
:203cb4000000000000000000000000000000000000000000000000000000000000000000f0
:0d3cd40000000000000000000000000000e3
:203ce1000000000000000000000000000000000000000000000000000000000000000000c3
:203d01000000000000000000000000000000000000000000000000000000000000000000a2
:203d2100000000000000000000000000000000000000000000000000000000000000000082
:0d3d41000000000000000000000000000075
:203d4e00000000000000000000000000000000000000000000000000000000000000000055
:203d6e00000000000000000000000000000000000000000000000000000000000000000035
:203d8e00000000000000000000000000000000000000000000000000000000000000000015
:0d3dae000000000000000000000000000008
:203dbb000000000000000000000000000000000000000000000000001600000000000200d0
:203ddb001000000000000000000000000000000000000000000000000000000000000000b8
:203dfb000000000000000000000000000000000000000000000000000000000000000000a8
:0d3e1b00000000000000000000000000009a
:203e2800000000000000000000000000000000000000000000000000020000000000000078
:203e4800b000000000000000000000000000000000000000000000000000000000000000aa
:203e680000000000000000000000000000000000000000000000000000000000000000003a
:0d3e8800000000000000000000000000002d
:203e950000000000000000000000000000000000000000000000000000000000000000000d
:203eb5000000000000000000000000000000000000000000000000000000000000000000ed
:203ed5000000000000000000000000000000000000000000000000000000000000000000cd
:0d3ef50000000000000000000000000000c0
:203f0200080000000000000000000000000000000000000000000000000000000000000097
:203f220000000000000000000000000000000000000000000000000000000000000000007f
:203f420000000000000000000000000000000000000000000000000000000000000000005f
:0d3f62000000000000000000000000000052
:203f6f0000000000000000000000000000000000000000000000000000004ca00100000045
:203f8f00000000000000000000000000000000000000000000000000000000000000000012
:203faf000000000000000000000000000000000000000000000000000000000000000000f2
:0d3fcf0000000000000000000000000000e5
:203fdc000000000000000000000000000000000000000000000000000000c0000000000005
:203ffc00f000000000000000000000000000000000000000000000000000000000000000b5
:20401c00000000000000000000000000000000000000000000000000000000000000000084
:0d403c000000000000000000000000000077
:20404900000000000000000000000000000000000000000000000000000000000000000057
:20406900000000000000000000000000000000000000000000000000000000000000000037
:20408900000000000000000000000000000000000000000000000000000000000000000017
:0d40a900000000000000000000000000000a
:2040b6000000000000000000000000000000000000000000000000000000000000000000ea
:2040d6000000000000000000000000000000000000000000000000000000000000000000ca
:2040f6000000000000000000000000000000000000000000000000000000000000000000aa
:0d411600000000000000000000000000009c
:20412300000000000000000000000000000000000000000000000000040000000000000078
:2041430000000000000000000000000000000000000000000000000000000000000000005c
:2041630000000000000000000000000000000000000000000000000000000000000000003c
:0d418300000000000000000000000000002f
:204190000000000000000000000000000000000000000000000000002e00000000000000e1
:2041b000d0000000000000000000000000000000000000000000000000000000000000001f
:2041d00000000000004000000000000100000000000004000000000000000000000000008a
:0d41f00000000000000000000000000000c2
:2041fd000000000000000000000080000000000000000000000000000000000000004000e2
:20421d0001300000000000000000000400000000000000000000000000000000000000004c
:20423d00000000000000000000000000000000000000000000000000000000000000000061
:0d425d000000000000001000000000000044
:20426a00000000000000000000000000000000000000000000000000000000000000000034
:20428a000dc1404000000000000000000000000000000000000000040000000000000000c2
:2042aa000000000000000000000000000000000000000000000000000000000000000000f4
:0d42ca0040000000000000000000000000a7
:2042d700000000400000000000010000000000000400000000000010000000000000400032
:2042f70000000000010000000000000400000000000000000000000400000000000010008e
:20431700000000000000000000000000000000000000040000000000001000000000000072
:0d4337000000000000001100000000000068
:20434400000000000000000000000000000000000000000000000000000000000000400019
:20436400000000000000000000000004000000000000000000000000000000000000000035
:20438400000000000000000000000000000000000000040000000000001000000000000005
:0d43a400000000000000010000000000000b
:2043b1000000000000000000000000000000000000000000000000000000000000000000ec
:2043d1000000000000000000000000000000000000000000000000000000000000000000cc
:2043f1000000000000000000000000000000000000000000000000000000000000000000ac
:0d441100000000000000000000000000009e
:20441e0000000000000000000000000000000000040000000000001000000000000000006a
:20443e0000000000010000000000000000000000000000000000000000000000000000005d
:20445e000000000000400000000000010000000000000000000000000000000000000000fd
:0d447e000000000000000000000000000031
:20448b00000000000000000000000000000000000000000000000000000000000000000011
:2044ab000000000000000000000000000000000000000000000000000000000000000000f1
:2044cb000000000000000000000000000000000000000000000000000000000000000000d1
:0d44eb0000000000000000000000000000c4
:2044f8000000000000000000000000000000000000000000000000000000000000000000a4
:20451800000000000000000000000000000000000000000000000000000000000000000083
:20453800000000000000000000000000000000000000000000000000000000000000000063
:0d4558000000000000000000000000000056
:20456500000000000000000000000000000000000000000000000000000000000000000036
:20458500000000000000000000000000000000000000000000000000000000000000000016
:2045a5000000000000000000000000000000000000000000000000000000000000000000f6
:0d45c50000000000000000000000000000e9
:2045d2000000000000000000000000000000000000000000000000000000000000000000c9
:2045f2000000000000000000000000000000000000000000000000000000000000000000a9
:20461200000000000000000000000000000000000000000000000000000000000000000088
:0d463200000000000000000000000000007b
:20463f0000000000000000000000000000000000000000000000000000000000000000005b
:20465f000000000000000000000000400000000000000000000000000000000000000000fb
:20467f0000000000000000000000000000000000000000000000000000000000000000001b
:0d469f00000000000000000000000000000e
:2046ac000000000000000000000000000000000000000000000000000000000000000000ee
:2046cc000000000000000000000000000000000000000000000000000000000000000000ce
:2046ec000000000000000000000000000000000000000000000000000000000000000000ae
:0d470c0000000000000000000000000000a0
:20471900000000000000000000000000000000000000000000000000000000000000000080
:20473900000000000000000000000000000000000000000000000000000000000000000060
:20475900000000000000000000000000000000000000000000000000000000000000000040
:0d4779000000000000000000000000000033
:20478600000000000000000000000000000000000000000000000000000000000000000013
:2047a6000000000000000000000000000000000000000000000000000000000000000000f3
:2047c6000000000000000000000000000000000000000000000000000000000000000000d3
:0d47e60000000000000000000000000000c6
:2047f3000000000000000000000000000000000000000000000000000000000000000000a6
:20481300000000000000000000000000000000000000000000000000000000000000000085
:20483300000000000000000000000000000000000000000000000000000000000000000065
:0d4853000000000000000000000000000058
:20486000000000000000000000000000000000000000000000000000000000000000000434
:20488000000000000000000000000000000000000000000000000000000000000000000018
:2048a0000000000000000000000000000000000000000000000000000000000000000000f8
:0d48c00000000000000000000000000000eb
:2048cd000000000000000000000000000000000000000000000000000000000000000000cb
:204d0f00000000000000000000000000000000004000000000000000000000000000000044
:204d2f00000000000000000000000000000000000000000000000000000000000000000064
:204d4f00000000000000000000000000000000000000000000000000000000000000000044
:0d4d6f000000000000000000000000000037
:204d7c000000000000000000000000000000000040000000000000000000000000000000d7
:204d9c000000000000000000000000000000000000000000000000000000000000000000f7
:204dbc000000000000000000000000000000000000000000000000000000000000000000d7
:0d4ddc0000000000000000000000000000ca
:204de9000000000000000000000000000000000000000000000000000000000000000000aa
:204e0900000000000000000000000000000000000000000000000000000000000000000089
:204e2900000000000000000000000000000000000000000000000000000000000000000069
:0d4e4900000000000000000000000000005c
:204e560000000000000000000000000000000000000000000000000000000000000000003c
:204e760000000000000000000000000000000000000000000000000000000000000000001c
:204e96000000000000000000000000000000000000000000000000000000000000000000fc
:0d4eb60000000000000000200000000000cf
:204ec3000000000000000000000000000000000000000000000000000000000000000000cf
:204ee3000000000000000000000000000000000000000000000000000000000000000000af
:204f030000000000000000000000000000000000000000000000000000000000000000008e
:0d4f23000000000000000000000000000081
:204f3000000000000000000000000000000000000000000000000000000000000000000061
:204f5000000000000000000000000000000000000000000000000000000000000000000041
:204f7000000000000000000000000000000000000000000000000000000000000000000021
:0d4f90000000000000000000000000000014
:204f9d000000000000000000000000000000000000000000000000000000000000000000f4
:204fbd000000000000000000000000000000000000000000000000000000000000000000d4
:204fdd000000000000000000000000000000000000000000000000000000000000000000b4
:0d4ffd0000000000000000000000000000a7
:20500a00000000000000000000000000000000000000000000000000000000000000000086
:20502a00000000000000000000000000000000000000000000000000000000000000000066
:20504a00000000000000000000000000000000000000000000000000000000000000000046
:0d506a000000000000000000000000000039
:20507700000000000000000000000000000000000000000000000000000000000000000019
:205097000000000000000000000000000000000000000000000000000000000000000000f9
:2050b700000000000000000000000000000000000000800000000000000000000000000059
:0d50d70000000000000000000000000000cc
:2050e4000000000000000000000000000000000000000000000000000000000000000000ac
:2051040000000000000000000000000000000000000000000000000000000000000000008b
:2051240000000000000000000000000000000000000000000000000000000000000000006b
:0d514400000000000000000000000000005e
:2051510000000000000000000000000000000000000000000000000000000000000000003e
:2051710000000000000000000000000000000000000000000000000000000000000000001e
:205191000000000000000000000000000000000000000000000000000000000000000000fe
:0d51b10000000000000000000000000000f1
:2051be000000000000000000000000000000000000000000000000000000000000000000d1
:2051de000000000000000000000000000000000000000000000000000000000000000000b1
:2051fe00000000000000000000000000000000000000000000000000000000000000000091
:0d521e000000000000000000000000000083
:20522b00000000000000000000000000000000000000000000000000000000000000000063
:20524b00000000000000000000000000000000000000000000000000000000000000000043
:20526b000000000000000000000000000000000000000000000029500000000000000000aa
:0d528b000000000000000000000000000016
:205298000000000000000000000000000000000000000000000000000000000000000000f6
:2052b8000000000000000000000000000000000000000000000000000000000000000000d6
:2052d800000000000000000000000000000000000000000000f01698000000000000000018
:0d52f80000000000000000000000000000a9
:20530500000000000000000000000000000000000000000000000000000000000000000088
:20532500000000000000000000000000000000000000000000000000500000000000000018
:205345000000000000000000000000000000000000008000000000000000000000000000c8
:0d536500000000000000000000000000003b
:2053720000000000000000000000000000000000000000000000000000000000000000001b
:205392000000000000000000000000000000000000000000000000002000000000000000db
:2053b2000000000000000000000000000000000000000000000000000000000000000000db
:0d53d20000000000000000000000000000ce
:2053df000000000000000000000000000000000000000000000000000000000000000000ae
:2053ff0000000000000000000000000000000000000000000000000000000000000000008e
:20541f0000000000000000000000000000000000000000000000000000000000000000006d
:0d543f000000000000000000000000000060
:20544c00000000000000000000000000000000000000000000000000000000000000000040
:20546c00000000000000000000000000000000000000000000000000000000000000000020
:20548c00000000000000000000000000000000000000000000000000000000000000000000
:0d54ac0000000000000000000000000000f3
:2054b9000000000000000000000000000000000000000000000000000000000000000000d3
:2054d9000000000000000000000000000000000000000000000000000000000000000000b3
:2054f900000000000000000000000000000000000000000000000000000000000000000093
:0d5519000000000000000000000000000085
:20552600000000000000000000000000000000000000000000000000000000000000000065
:20554600000000000000000000000000000000000000000000000000000000000000000045
:20556600000000000000000000000000000000000000000000000000000000000000000025
:0d5586000000000000000000000000000018
:205593000000000000000000000000000000000000000000000000000000000000000000f8
:2055b3000000000000000000000000000000000000000000000000000000000000000000d8
:2055d3000000000000000000000000000000000000000000000000000000000000000000b8
:0d55f30000000000000000000000000000ab
:2056000000000000000000000000000000000000000000000000000000000000000000008a
:2056200000000000000000000000000000000000000000000000000000000000000000006a
:2056400000000000000000000000000000000000000000000000000000000000000000004a
:0d566000000000000000000000000000003d
:20566d0000000000000000000000000000000000000000000000000000000000000000001d
:20568d000000000000000000000000000000000000000000000000000000000000000000fd
:2056ad000000000000000000000000000000000000000000000000000000000000000000dd
:0d56cd0000000000000000000000000000d0
:2056da000000000000000000000000000000000000000000000000000000000000000000b0
:2056fa00000000000000000000000000000000000000000000000000000000000000000090
:20571a0000000000000000000000000000000000000000500000000000000000000000001f
:0d573a000000000000000000000000000062
:20574700000000000000000000000000000000000000000000000000000000000000000042
:20576700000000000000000000000000000000000000000000000000000000000000000022
:2057870000000000000000000000000000000000000000000e0000000000000000000000f4
:0d57a70000000000000000000000000000f5
:2057b4000000000000000000000000000000000000000000000000000000000000000000d5
:2057d4000000000000000000000000000000000000000000000000000000000000000000b5
:2057f400000000000000000000000000000000000000000000000000000000000000000095
:0d5814000000000000000000000000000087
:20582100000000000000000000000000000000000000000000000000000000000000000067
:20584100000000000000000000000000000000000000000000000000000000000000000047
:20586100000000000000000000000000000000000003000000000000000000000000000024
:0d588100000000000000000000000000001a
:20588e000000000000000000000000000000000000000000000000000000000000000000fa
:2058ae000000000000000000000000000000000000000000000000000000000000000000da
:2058ce000000000000000000000000000000000000000000000000000000000000000000ba
:0d58ee0000000000000000000000000000ad
:2058fb00000000000000000000000000000000000000000000000000000000000000040089
:20591b0000000000000000000000000000000000000000000000000000000000000000006c
:20593b0000000000000000000000000000000000000000000000000000000000000000004c
:0d595b00000000000000000000000000003f
:2059680000000000000000000000000000000000000000000000000000000000000002001d
:205988000000000000000000000000000000000000000000000000000000000000000000ff
:2059a8000000000000000000000000000000000000000000000000000000000000000000df
:0d59c80000000000000000000000000000d2
:2059d5000000000000000000000000000000000000000000000000000000000000000000b2
:205fcb00000000000000000000000000000000000000000000000000000000000000008036
:205feb00000000000000000000000000000000000000000000000000000000000000000096
:20600b00000000000000000000000000000000000000000000000000000000000000000075
:0d602b000000000000000001c000000000a7
:206038000000000000000000000000000000000000000000000000000000000000000070d8
:20605800000000000000000000000000000000000000000000000000000000000000000028
:20607800000000000000000000000000000000000000000000000000000000000000000008
:0d60980000000000000000000000000000fb
:2060a500000000000000000000000000000000000000400000000000000000000018000083
:2060c500000000000000000000000000000c000000000000000000000000000000000001ae
:2060e50000000000000000000000001000000000000000000000000000000000000000008b
:0d61050000000000000060000000af060078
:20611200000000000000000000000000000000000800000000000000000000000020000045
:2061320000000000000000000000000000000000000000000000000000000000000000004d
:2061520000000000000000000000000000000000000000000000000000000000000000002d
:0d617200380000000000800000010f000454
:20617f00000000000000000000000000000000000080000000000000000000000010000070
:20619f00e00000000000000000000000000000000000000000000000000000000000000000
:2061bf000000000000000000000000000000000000000000000000000000000000000000c0
:0d61df0000000000000000000600000000ad
:2061ec00000000000000000000000000000000000000000000000000000000000030000162
:20620c00000000000000000000000000000000000000000000000000000000000000000072
:20622c00000000000000000000000000000000000000000000000000000000000000000052
:0d624c000000000000000000000000000045
:2062590006000000000000000000000000000000000000000000000000000000000000001f
:206279000000000000000000000000000000000000000000000000002000000000000000e5
:20629900000000000000000000000000000000000000002000000000000000001cf51000a4
:0d62b9000000000000000000001cca54009e
:2062c6000000000000000000000000000000000000000000000000000000000000000000b8
:2062e600000000000000000000000000000000000000000000000028400000000000000030
:2063060000000000000000000000000000000000000000500000000000000001d0fa00005c
:0d632600000000000000000000070550000e
:20633300000004000000000000000000000000000000000000000000000000000000000046
:20635300077c75800000000000000040000000000000000000000000000000000000000072
:2063730000000000000000000000000000000000000000000000000000000000000000000a
:0d63930000000000000000000040000000bd
:2063a0000000040000000000000000000000000000000000000000000000000000000000d9
:2063c0000130610000000000000000400000000000000000000000000000000000000000eb
:2063e00000000000000000000000000000000000000000000000000000000000000000009d
:0d640000000000000000000003400000004c
:20640d0000000000000000000000000000000000000000000000000000000000000000006f
:20642d00000000000000000000000000070000000000000000000000200000000000000028
:20644d000000000000000400000000000000000000004300000000000000000000000000e8
:0d646d000000000000000000000000000022
:20647a0000000000000000000000000000000000000000000000000000000000000000f012
:20649a00000000000000000000000000008000000000000000000000100000000000000052
:2064ba0000000000000000000000000000000000000000000000000000000038000000008a
:0d64da0000000000000000000000000000b5
:2064e700000000000000000000000000000000000000000000000000000000000000000095
:2065070000000000000000000000000000001f3e8000000000000000000000000000000097
:20652700000000000000000000000000000000000000000000000000000020000000000034
:0d6547000000000000000000030000000044
:20655400000000000000000000000000000000000000000000000000000000000000009097
:206574000000000000000000000000000000083e8000000000000000000000000000000041
:2065940000000000000000000000000000000000000000000000000000002c0000000000bb
:0d65b40000000000000000000000000000da
:2065c100000000000000000000000000000000000000000000000000000000000030050085
:2065e10000000000000000000000000000000000000000000000000000000000000000009a
:20660100000000000000000000000000000000000000000000000000000000000000000079
:0d662100000000000000000000000000006c
:20662e000000000000000000000000000000000000000000000000000000000000000270da
:20664e0000000000000000000000000000000000000000000000000000000000000000002c
:20666e0000000000000000000000000000000000000000000000000000000000000000000c
:0d668e0000000000000000000000000000ff
:20669b0000000000000000000000000000ef040000200000000000000020000000000000ac
:2066bb0000000000000000000000000000000683d4000000000002000000b303c0000206e2
:2066db00044f4a010100000000000000000000000000000000000000000000000000000000
:0d66fb000000000000000000000000000092
:20670800000000000000000000000000010f000000400000000000000040000000000000e1
:2067280000000000000000000000000000000403d0100000000000000000f4000200000074
:2067480020cbdf000000000000000000000000000000000000000000000000000000000067
:0d6768000000000000000000000000000024
:2067750000001800000000000060000000000000000000000000060000000000001800006e
:20679500000000006000000000000180000000000000000000000280081c00000006000057
:2067b5000008f0400000000000000000000000000000000000bf814026000003eae55000c4
:0d67d5002000000000006000000000000037
:2067e2000000200000000000008000000000000000000000000008000000000000200000cf
:206802000000000080000000000002000000000000000000000000000f10000000080000cd
:206822003410f0000000000000000000000000000000000000f42948080000014fff400026
:0d6842000000000000009000c000000000f9
:20684f0000000000000000000000020000af0400000000000000000000005e455010000170
:20686f00e00000000001460000000100200000000000000000000000000c063e88010000e8
:20688f000000a54000000000000000000000000000000080000000000c0a0c000000000062
:0d68af00000000000000d00000000000000c
:2068bc000000000000e0000000000042010f000000000000000000000002ec4a48200001e9
:2068dc000000000000002000000002001000000000000000000000000008d43d4000000011
:2068fc0002c05a0000000000000000000000000000000000000000000c0000000000000054
:0d691c00000000000000d00000000000009e
:2069290000000000000000000000000000000000000000000000000000000000000000004e
:206949000000000000000014bf450000000000000000000000000000000000295800000095
:20696900600000000018000000000000000000000000000000000000000000000000000096
:0d69890000000000000010000000000000f1
:206996000000000000000000000000000000000000000000000000000000000000000000e1
:2069b600000000000000002ecf060000000a000000000000000000000000d0169a500000e4
:2069d60000000000000a00000000000020000000000000000000000000003c000000000437
:0d69f6000000000000000000000000000094
:206a030000000000000000000000000000000000000000000000000000040000000000006f
:206a230000000000000007800000001000000000000000000000000007880000000000002d
:206a430079cca000000000000000000000000000000020000000000000000000000000002e
:0d6a63000000077814840001e0000000002e
:206a70000000000000000000000000000000000000000000000000001c20000000000000ca
:206a90000000000010000000000000000000000000000000000000000010000000000024a2
:206ab0006030a0200000000000000000000000000000100000000000000000000000000066
:0d6ad0000000004014000000200000000045
:206add00000000000000000000000000000000000000000000000000000000000000000099
:206afd00000000000000e00000000000000000000000000000000000000000000000000099
:206b1d0000000000000000000000000400000000000000080000000000000000000000004c
:0d6b3d00000000000000000007bd85b40846
:206b4a0000000000000000000000000000000000000000000000000000000000000000002b
:206b6a00e000000000002000000000000000000000002000000000000000000000004000ab
:206b8a0000000000003800000000000a0000000000000007000000000000000000000000a2
:0d6baa000000000000000000002cc01400de
:206bb7000000000000002bc10000000040af0400000000000000000080000000000000005f
:206bd700000000000000000000000010000000000002040000000000000000000001001473
:206bf7000400000000000000000000000000000000008000000000000000803c000000003e
:0d6c17000000000000000001c78000000028
:206c240000000000000043c000000002000f00040000000000000000000000000000000038
:206c4400000000000000000000000000000000000000000000000000000000000000001c14
:206c64003800000000000000000000000000000000000000000000000000003400000000a4
:0d6c840000d0000000000000100000000023
:206c9100000000000000000000000000000000000000000000000c00200000000030000087
:206cb1000573e920c000000000000300000000000000000000000100001c00000000000062
:206cd10001d8050000000000000000000000000000000000080000000c001e000000000093
:0d6cf100000010000000c0000000000000c6
:206cfe000000000000000000000000000000000000000000000008002c0000000000000042
:206d1e0000c3eb008000000000000003800000000000000000000100001000000000000093
:206d3e00001005000400000000000000000000000000000019000000000000000000000003
:0d6d5e000000f00000000000000000000038
:206d6b004000000000006bc100000002800000000000003f8394200020016d1800010000fd
:206d8b000063c1820000000000000000000000000000400000000000000000295000000089
:206dab0001ef3d0020000099a8000080000034aa0400000001be0200000006616fb540004c
:0d6dcb00000007fbd4000000028000000063
:206dd80000020000000043c000000004000000002000083e83f6000014006e100000000021
:206df8000043c04000000380000000000000000000008000000000000000d01680010000ce
:206e180003c81a000000d0872840000000000600a4000001083e400200800001de30c00034
:0d6e380000000083d40400000400000000ee
:206e450000001800000000000060000000ef04018000080000000000200000000018008180
:206e6500e000000000000015dc000180080087abc8000000000001c000000683c4060000a5
:206e8500000aa0000880180bf601022000c79fcf500180080a00000006006002dc020028f9
:0d6ea500000000303c806000000000000094
:206eb200800020000000000000800002810f000200001000000000001c000000002000b010
:206ed2000000000000000036cda0020007005417c000004000000241c0000003c008003487
:206ef20003d05000400000b3ba0500000264030f5012000110000000080084036d000000c4
:0d6f1200000000403c008000000000000076
:206f1f00740000000000000000040060000000000005000000000004000000000000000071
:206f3f00000000000000029dc0800000000000000000000000000010280a02bc1000000043
:206f5f006add850000009183809080000207c00000000000008029500000000608020200ce
:0d6f7f000000006bc1400000000000000099
:206f8c0028000000000000000000000000000000000080000000000034000000000000d039
:206fac0000000000000006ff900180000000000000000140000000205100003c040080003d
:206fcc0043fe470040005803b40000000047c00000000000003016900000002bd0010000f5
:0d6fec0000000003c10000000000000000d4
:206ff900003b0000000033c1000000000000000002800e00000000801c0400000000805049
:207019000000000000d4078000000000000a0000000000000000000025800000000000004d
:20703900317c0222000080e83940000000000000000000000ade0000000020001ec062003d
:0d70590000780000000000000000000000b2
:207066000040000000a003c004000000000000000000100000000040363c00000000000899
:20708600f000000000000400000000000b100000000000000000000010800000000000004b
:2070a600403002000400f10302800400000000000000008010b8014000003c2c00c04840a1
:0d70c600007000000000000240000000000b
:2070d3000030000080000000000008000000000000080c00000000001400000000010800b4
:2070f30005f028000000000000000002880007bc100006000000000000000000000000807d
:20711300780000000010d0107a000800000306e5500000080cff3d500000003a48004000d2
:0d713300000010000000000200000000003d
:20714000404000281000000000000000000000000005000000000000000000000000003042
:207160000080280200000000000000000f00043c0020000000000000000e00000000800068
:2071800000000000000058fb4100000002c002055200000300143c101000002fd0a04800e6
:0d71a0000000c00000000003c0000000005f
:2071ad000000000000000000000080000000000000019a1696900100003b7f020000007836
:2071cd0001f800080081e2b7eff000000018b6940400000000000000000000000000000042
:2071ed00340000000000f18963ed880004004dc5501000001a9fbd4001006164f9f7000911
:0d720d000000000000000000000dff1788c9
:20721a0000000000000000000000e00000000000000000ff529041003c02df00000002082b
:20723a00a50008000000401f0af100000000b40000000000000000000000000000000c006d
:20725a007c0000000000f8e5436d010009c380055000000500943fc4400cac236dff010243
:0d727a0080000000000000000024ab148024
:207287000000000000000000000001e685f000000000001f17c000400001e0db0200000097
:2072a70007fbec080000070000000000000006bc1000000000000001800073d78000021695
:2072c7006000a54000101807b0280000020786cf500800001e7b3e80a0001e0600a54000a5
:0d72e700000000000000000000000000009a
:2072f4008000000000000000000000241f90100400100a0817c80020000040c3000000509f
:207314000343e80000000340000000004000003c00002000000000000b0dbbcb8010003ce2
:2073340065c05a080000000d2408000001c0010f50000000101c3d0000000020405a4000f5
:0d735400000000000000000000000000002c
:2073610000000000000000000000000040af040308000100000000015c307d80000028104b
:2073810015f020881a00070000000000400f063c1000000000000003800e00000001800467
:2073a100300000003000500db30500c008079caf500320001f3384048c00842800a54010c3
:0d73c100008010000000c40060000000000b
:2073ce00000000000000000000000002800f000200000a0000000000a4794a00000000b0eb
:2073ee00e74000811403c400000000000008003c0840000000000000800000000001401e91
:20740e00000000002000d8dba40900803404030f501010011e04040000010243405a40302d
:0d742e0000b0d000000002000000000000cf
:02743b0000004f
:02743d0011013b
:02743f00010149
:20744100000000000000000000080000000000000000000000000000000000000002000021
:207461000000000000000000000000200000000000008000000000000000000000008000eb
:207481000000000000000000000000000000000000000000000000000000000000000000eb
:0d74a10000000000000000000000000000de
:2074ae000000000000000000000000000000000000000000000000000000000000000000be
:2074ce0000000000000000000000000000000000000000000000000000000000000000009e
:2074ee0000000000000000000000000000000000000000000000000000000000000000007e
:0d750e000000000000000000000000000070
:20751b0000000000000000000004000000000000000000000000000000000000000100004b
:20753b00000000000000080000000010000000000000400000000000000000000000400d8b
:20755b00000000000000000000000000000000000000000000000000000000000000000010
:0d757b0000000000000004000000000000ff
:207588000000000000000000000000000000000000000000000000000000000000000000e3
:2075a800000000000000500000000000000000000000000000000000000000000000000073
:2075c8000000000000000000000000000000000000000000000000000000000000000000a3
:0d75e8000000000000000000000000000096
:2075f50000000000000000000008000000000000000000000000000000000000000200006c
:207615000008000000000000000000200200008000008000000000000000000000008000ab
:20763500000300000000000000000000000000000000000000000000000000000000000032
:0d7655000000000000000000000000000028
:20766200000000000000000000000000001000000000000000000000000000000000000cec
:20768200000c00000000000000000000014000c000000000000100000000000000000000da
:2076a2000001000000000000000000000000000000000000000000000000000000000000c7
:0d76c20000000000000000000000000000bb
:2076cf0000000000000000000000000000000000000000000000000000000000000000009b
:2076ef0000000000000000000000000000000000000000000000000000000000000000007b
:20770f0000000000000000000000000000000000000000000000000000000000000000005a
:0d772f000000000000000800000000000045
:20773c0000000000000000000000000000000000000000000000000000000000000000002d
:20775c0000000000000000000000000000000000000000000000000000000000000000000d
:20777c000000000000000000000000000000000000000000000000000000000000000000ed
:0d779c0000000000000000000000000000e0
:2077a9000000000000000000000000000000000000000000000000000002000000000000be
:2077c900000000000000002000000000000000000000000000000000000080000000000000
:2077e900000000000000000000000000000000000000000000000000000000000000000080
:0d7809000000000000000000001000000062
:20781600000000000000000000000000000000000000000000000000000000000000000052
:2078360000060000000000000000000000000000000000000000000000000000000000002c
:20785600000000000000000000000000000000000000000000000000000000000000000012
:0d7876000000000000000000000000000005
:207883000000000000000000000000000000000000000000000000000000030000000000e2
:2078a300000000000000000010000000000000000000000000000000000000400000000075
:2078c3000000000000000000000000000000000000000000000000000000000000000000a5
:0d78e3000000000000000000000000000098
:2078f0000000000000000000000000000000000000000000000000800000000000000000f8
:207910000000000008000000300000000000000000000000000000200000000000000000ff
:20793000000000000000000000000000000000000000000000000000000000000000000037
:0d795000000000000000000000000c00001e
:20795d00000000000000000000000000000000000000000000000000080000000000000002
:20797d00000000000000000060000000000000000000000000000000000001000000000089
:20799d00000600000000000000000000000000000000000000018000000000000000000043
:0d79bd0000000000000000001800000000a5
:2079ca0000000000000000000000000000000000000000000000004003000000000000005a
:2079ea00000000000400000000000000000000000000000000000010000000000000000069
:207a0a0000000000000000000000000000000000000000000000000000000000000000005c
:0d7a2a000000000000000000080000000047
:207a3700000000000000000000000008100000000000000000000000000000000000000017
:207a5700040000000000000000000000000040000000000001000000034000000000000087
:207a77000100000000000000000000000000000000000000000000000000000000000000ee
:0d7a970000000000000000000010000000d2
:207aa4000000000000000000000000500000000000000000000000800000000000000000f2
:207ac4000000000008000000000000000000000000000005800000200200000000000000f3
:207ae400000000000000000000000000000000000000000000008000000000000000000002
:0d7b04000000000000000000000000000074
:207b1100000000000000000000000000000000000000000000000000000000000000000054
:207b3100000000000000000000000000000000000000000000000000000000000000000034
:207b5100000000000000000000000000000000000000000000000000000000000000000014
:0d7b71000000000000000000000000000007
:207b7e000000000000000000000000000000000000000000000000000000000000000000e7
:207b9e000000000000000000000000000000000000000000000000000000000000000000c7
:207bbe000000000000000000000000000000000000000000000000000000000000000000a7
:0d7bde000000000000000000030000000097
:207beb0000000000000000000000000000000000000000000000000000000000000000007a
:207c0b00000000000000000000000000000000000000000000000000000000000000000059
:207c2b00000000000000000000000000000000000000000000000000000000000000000039
:0d7c4b00000000000000000000000000002c
:207c580000000000000000000000000000000000000000000000000000000000000000000c
:207c78000000000000000000000000000000000000000000000000000000000000000000ec
:207c98000000000000000000000000000000000000000000000000000000000000000000cc
:0d7cb80000000000000000000000000000bf
:207cc50000000000000000000000000000000000000000000000000000000000000000009f
:207ce50000000000000000000000000000000000000000000000000000000000000000007f
:207d050000000000000000000000000000000000000000000000000000000000000000005e
:0d7d25000000000000000000000000000051
:207d3200000000000000000000000000000000000000000000000000000000000000000031
:207d5200000000000000000000000000000000000000000000000000000000000000000011
:207d72000000000000000000000000000000000000000000000000000000000000000000f1
:0d7d920000000000000000000000000000e4
:207d9f000000000000000000000000000000000000000000000000000000000000000000c4
:207dbf000000000000000000000000000000000000000000000000000000000000000000a4
:207ddf00000000000000000000000000000000000000000000000000000000000000000084
:0d7dff000000000000000000000000000077
:207e0c00000000000000000000000000000000000000000000000000000000000000000056
:207e2c00000000000000000000000000000000000000000000000000000000000000000036
:207e4c00000000000000000000000000000000000000000000000000000000000000000016
:0d7e6c000000000000000000000000000009
:207e79000000000000000000000000000000000000000000000000000000000000000000e9
:207e99000000000000000000000000000000000000000000000000000000000000000000c9
:207eb9000000000000000000000000000000000000000000000000000000000000000000a9
:0d7ed9000000000000000000000100f000ab
:207ee60000000000000000000000000000000000000000000000000000000000000000007c
:207f060000000000000000000000000000000000000000000000000000000000000000005b
:207f260000000000000000000000000000000000000000000000000000000000000000003b
:0d7f460000000000000000000001e0f0005d
:207f530000000000000000000000000000000000000000000000000000000000000000000e
:207f73000000000000000000000000000000000000000000000000000000000000000000ee
:207f93000000000000000000000000000000000000000000000000000000000000000000ce
:0d7fb30000000000000000000000000000c1
:207fc0000000000000000000000000000000000000000000000000000000000000000000a1
:207fe000000000000000000000000000000000000000000000000000000000000000000081
:20800000000000000000000000000000000000000000000000000000000000000000000060
:0d8020000000000000000000000000000053
:20802d00000000000000000000000000000000000000000000000000000000000000000033
:20804d00000000000000000000000000000000000000000000000000000000000000000013
:20806d000000000000000000000000000000000000000000000000000000000000000000f3
:0d808d0000000000000000000000000000e6
:20809a000000000000000000000000000000000000000000000000000000000000000000c6
:2080ba000000000000000000000000000000000000000000000000000000000000000000a6
:2080da00000000000000000000000000000000000000000000000000000000000000000086
:0d80fa000000000000000000000000000079
:20810700000000000000000000000000000000000000000000000000000000000000000058
:20812700000000000000000000000000000000000000000000000000000000000000000038
:20814700000000000000000000000000000000000000000000000000000000000000000018
:0d81670000000000000000100000000000fb
:208174000000000000000000000000000000000000000000000000000000000000000000eb
:208194000000000000000000000000000000000000000000000000000000000000000000cb
:2081b4000000000000000000000000000000000000000000000000000000000000000000ab
:0d81d4000000000000000008000000000096
:2081e10000000000000000000000000000000000000000000000000000000000000000007e
:2082010000000000000000000000000000000000000000000000000000000000000000005d
:2082210000000000000000000000000000000000000000000000000000000000000000003d
:0d8241000000000000000000000000000030
:20873d0000000000000000000000000000000000000001800000000000000000000000009b
:0d875d00000000000000000000000000000f
:20876a000000000000000000000000000000000000000000000000000000000000000000ef
:20878a000000000000000000000000000000000000000000000000000000000000000000cf
:2087aa000000000000000000000000000000000000000000000000000000000000000000af
:0d87ca0000000000000000000000000000a2
:2087d700000000000000000000000000000000000000000000000000000000000000000082
:2087f700000000000000000000000000000000000000000000000000000000000000000062
:20881700000000000000000000000000000000000000000000000000000000000000000041
:0d8837000000000000000000000000000034
:20884400000000000000000000000000000000000000000000000000000000000000000014
:208864000000000000000000000000000000000000000000000000000000000000000000f4
:208884000000000000000000000000000000000000000000000000000000000000000000d4
:0d88a40000000000000000000000000000c7
:2088b1000000000000000000000000000000000000000000000000000000000000000000a7
:2088d100000000000000000000000000000000000000000000000000000000000000000087
:2088f100000000000000000000000000000000000000000000000000000000000000000067
:0d8911000000000000000000000000000059
:20891e004000000000000000000000000000000000000000000000000000000000000000f9
:20893e00000000000000000000000000000000000000000000000000000000000000000019
:20895e000000000000000000000000000000000000000000000000000000000000000000f9
:0d897e0000000000000000000000000000ec
:20898b0080000000000000000000000000000000000000000000000000000000000000004c
:2089ab000000000000000000000000000000000000000000000000000000000000000000ac
:2089cb0000000000000000000000000000000000000000000000000000000000000000008c
:0d89eb00000000000000000000000000007f
:2089f80000000000000000000000000000000000000000000000000000000000000000005f
:208a180000000000000000000000000000000000000000000000000000000000000000003e
:208a380000000000000000000000000000000000000000000000000000000000000000001e
:0d8a58000000000000000000000000000011
:208a65000c00000000000000000000000000000000000000000000000000000000000000e5
:208a85000000000000000000000000000000000000000000000000000000000000000000d1
:208aa5000000000000000000000000000000000000000000000000000000000000000000b1
:0d8ac50000000000000000000000000000a4
:208ad20048000000000000000000000000000000000000000000000000000000000000003c
:208af200000000000000000000000000000000000000000000000000000000000000000064
:208b1200000000000000000000000000000000000000000000000000000000000000000043
:0d8b32000000000000000000000000000036
:208b3f00000000000000000000000000000000000000000000000000000000000000000016
:208b5f000000000000000000000000000000000000000000000000000000000000000000f6
:208b7f000000000000000000000000000000000000000000000000000000000000000000d6
:0d8b9f0000000000000000000000000000c9
