:02000000ff00ff
:080002004c6174746963650030
:17000a00694345637562653220323032302e31322e32373934330071
:15002100506172743a2069434534304c50384b2d434d3831003f
:1a003600446174653a204d6179203220323032332031353a31353a343000b4
:0200500000ffaf
:040052007eaa997e6b
:02005600510057
:020058000105a0
:03005a00920020f1
:03005d00620367d4
:030060007201101a
:0300630082000018
:02006600110087
:02006800010194
:20006a00000000000000000000000000000000002000000000000000000000000000000056
:20008a00000000000000000000000000000000000000000000000000000000000000000056
:2000aa00000000000000000000000000000000000000000000000000000000000000000036
:0d00ca000000000000000000000000000029
:2000d700000000000000000000000000000000000000000000000000000000000000000009
:2000f7000000000000000000000000000000000000000000000000000000000000000000e9
:200117000000000000000000000000000000000000000000000000000000000000000000c8
:0d01370000000000000000000000000000bb
:2001440000000000000000000000000000000000100000000000000000000000000000008b
:2001640000000000000000000000000000000000000000000000000000000000000000007b
:2001840000000000000000000000000000000000000000000000000000000000000000005b
:0d01a400000000000000000000000000004e
:2001b10000000000000000000000000000000000000000000000000000000000000000002e
:2001d10000000000000000000000000000000000000000000000000000000000000000000e
:2001f1000000000000000000000000000000000000000000000000000000000000000000ee
:0d02110000000000000000000000000000e0
:20021e00000000000000000000000000000000002000000040000000000000000000000060
:20023e000000000000000000000000000000000000000000000000000000000000000000a0
:20025e00000000000000000000000000000000000000000000000000000000000000000080
:0d027e000000000000000000000000000073
:20028b000000000000000000000000000000000000000000c0000000000000000000000093
:2002ab00000000000000000000000000000000000000000000000000000000000000000033
:2002cb00000000000000000000000000000000000000000000000000000000000000000013
:0d02eb000000000000000000000000000006
:2002f8000000000000000000000000000000000000000000000000000000000000000000e6
:200318000000000000000000000000000000000000000000000000000000000000000000c5
:200338000000000000000000000000000000000000000000000000000000000000000000a5
:0d0358000000000000000000000000000098
:20036500000000000000000000000000000000000000000000000000000000000000000078
:20038500000000000000000000000000000000000000000000000000000000000000000058
:2003a500000000000000000000000000000000000000000000000000000000000000000038
:0d03c500000000000000000000000000002b
:2003d200000000000000000000000000000000000001e080000000000000000000000000aa
:2003f2000000000000000000000000000000000000000000000000000000000000000000eb
:200412000000000000000000000000000000000000000000000000000000000000000000ca
:0d04320000000000000000000000000000bd
:20043f0000000000000000000000000000000000000020000000000000000000000000007d
:20045f0000000000000000000000000000000000000000000000000000000000000000007d
:20047f0000000000000000000000000000000000000000000000000000000000000000005d
:0d049f000000000000000000000000000050
:2004ac00000000000000000000000000000000000003c0004000000000000000000000002d
:2004cc00000000000000000000000000000000000000000000000000000000000000000010
:2004ec000000000000000000000000000000000000000000000000000000000000000000f0
:0d050c0000000000000000000000000000e2
:20051900000000000000000000000000000000002002000040000000000000000000000060
:200539000000000000000000000000000000000000000000000000000000000000000000a2
:20055900000000000000000000000000000000000000000000000000000000000000000082
:0d057900000000000000000000000c000069
:20058600000000000000000000000000000000000000000000000000000000000000000055
:2005a600000000000000000000000000000000000000000000000000000000000000000035
:2005c600000000000000000000000000000000000000000000000000000000000000000015
:0d05e60000000000000000003000000000d8
:2005f3000000000000000000000000000000000010000000000000000000000000000000d8
:200613000000000000000000000000000000000000000000000000000000000000000000c7
:200633000000000000000000000000000000000000000000000000000000000000000000a7
:0d065300000000000000000000000000009a
:2006600000000000000000000000000000000000000000400000000000000000000000003a
:2006800000000000000000000000000000000000000000000000000000000000000000005a
:2006a00000000000000000000000000000000000000000000000000000000000000000003a
:0d06c000000000000000000000000000002d
:2006cd000000000000000000000000000000000020000000000000000000000000000000ed
:2006ed000000000000000000000000000000000000000000000000000000000000000000ed
:20070d000000000000000000000000000000000000000000000000000000000000000000cc
:0d072d0000000000000000000000000000bf
:20073a0000000000000000000000000000000000000000000000000000000000000000009f
:0d138600000000000000100000000000004a
:2013930000000000000000000000000000000000000000000000000000000000000000003a
:2013b30000000000000000000000000000000000000000000000000000000000000000001a
:2013d3000000000000000000000000000000000000000000000000000000000000000000fa
:0d13f30000000000000000000000000000ed
:201400000000000000000000000000000000000000000000000000000000000000000000cc
:201420000000000000000000000000000000000000000000000000000000000000000000ac
:2014400000000000000000000000000000000000000000000000000000000000000000008c
:0d146000000000000000000000000000007f
:20146d0000000000000000000000000000000000000000000000000000000000000000005f
:20148d0000000000000000000000000000000000000000000000000000000000000000003f
:2014ad0000000000000000000000000000000000000000000000000000000000000000001f
:0d14cd000000000000000000000000000012
:2014da004004000000000000000000000000000000000000000000000000000000000000ae
:2014fa000000000000000000000000000000000000000000000000000000000000000000d2
:20151a000000000000000000000000000000000000000000000000000000000000000000b1
:0d153a0000000000000000000000000000a4
:20154700003200000000000000000000000000000000000000000000000000000000000052
:20156700000000000000000000000000000000000000000000000000000000000000000064
:20158700000000000000000000000000000000000000000000000000000000000000000044
:0d15a7000000000000000000000000000037
:2015b4000000000000000000000000000000000000000000000000400000000000000000d7
:2015d4000000000000000000000000000000000000000000000000000000000000000000f7
:2015f4000000000000000000000000000000000000000000000000000000000000000000d7
:0d16140000000000000000000000000000c9
:201621008000000000000000000a00000000000000000000000000a000000000000000007f
:20164100000000000000000000000000000000000000000000000000000000000000000089
:20166100000000000000000000000000000000000000000000000000000000000000000069
:0d168100000000000000000000000000005c
:20168e004000000000000000001000000000000000000000000000000000000000000000ec
:2016ae0000000000000000000000000000000000000000000000000000000000000000001c
:2016ce000000000000000000000000000000000000000000000000000000000000000000fc
:0d16ee0000000000000000000000000000ef
:2016fb000800000000000000000000000000000000000000000000000000000000000000c7
:20171b000000000000000000000000000000000000000000000000000000000000000000ae
:20173b0000000000000000000000000000000000000000000000000000000000000000008e
:0d175b000000000000000000000000000081
:20176800000100000000000000000000000000000000000000000000000000000000000060
:201788000000000000e0000000000000000000000000000000000000000000000000000061
:2017a800000000000000000000000000000000000000000000000000000000000000000021
:0d17c8000000000000000000000000000014
:2017d5000000000000000000000000000000000000000000000000000000000000000000f4
:2017f5000000000000000000000000000000000000000000000000000000000000000000d4
:201815000000000000000000000000000000000000000000000000000000000000000000b3
:0d18350000000000000000000000000000a6
:20184200000000000000000000000000000000000000000000000000000000000000000086
:20186200000000000000000000000000000000000000000000000000000000000002000064
:20188200000000000000000000000000000000000000000000000000000000000000000046
:0d18a2000000000000000000000000000039
:2018af00003c000000000000000000000000000000000000000000000000000000000000dd
:2018cf000000000000000000000000000000000000000000000000000000000000000000f9
:2018ef000000000000000000000000000000000000000000000000000000000000000000d9
:0d190f0000000000000000000000000000cb
:20191c00440000000000000000000000000000000000000000000000000000000000000067
:20193c0000000000000000000000000000000000000000000000000000000000000000008b
:20195c0000000000000000000000000000000000000000000000000000000000000000006b
:0d197c00000000000000000000000000005e
:20198900080000000000000000000000000000000000000000000000000000000000000036
:2019a90000000000000000000000000000000000000000000000000000000000000000001e
:2019c9000000000000000000000000000000000000000000000000000000000000000000fe
:0d19e90000000000000000000000000000f1
:2019f6000000000000000000000000000000000000000000000000000000000000000000d1
:201a16000000000000000000000000000000000000000000000000000000000000000000b0
:201a3600000000000000000000000000000000000000000000000000000000000000000090
:0d1a56000000000000000000000000000083
:201a63008000000000000000000000000000000000000000000000000000000000000000e3
:201a8300000000000000000000000000000000000000000000000000000000000000000043
:201aa30000000000000000000000000000000000000008000000000000000000000000001b
:0d1ac3000000000000000000000000000016
:201ad0004000000000000000000000000000000000000000000000000000000000000000b6
:201af0000000000000000000000000000000000000000000000000000000000000000000d6
:201b10000000000000000000000000000000000000000000000000000000000000000000b5
:0d1b300000000000000000000000000000a8
:201b3d00000000000000000000000000000000000000000000000000000000000000000088
:201b5d00000000000000000000000000000000000000000000000000000000000000000068
:201b7d00000000000000000000000000000000000000000000000000000000000000000048
:0d1b9d00000000000000000000000000003b
:201baa0000000000000000000000000000000000000000000000000000000000000000001b
:201bca000000000000000000000000000000000000000000000000000000000000000000fb
:201bea000000000000000000000000000000000000000000000000000000000000000000db
:0d1c0a0000000000000000000000000000cd
:201c17000000000000000000000000000000000000000000000000000000000000000000ad
:201c370000000000000000000000000000000000000000000000000000000000000000008d
:201c570000000000000000000000000000000000000000000000000000000000000000006d
:0d1c77000000000000000000000000000060
:201c8400000000000000000000000000000000000000000000000000000000000000000040
:201ca400000000000000000000000000000000000000000000000000000000000000000020
:201cc400000000000000000000000000000000000000000000000000000000000000000000
:0d1ce40000000000000000000000000000f3
:201cf1000000000000000000000000000000000000000000000000000000000000000000d3
:201d11000000000000000000000000000000000000000000000000000000000000000000b2
:201d3100000000000000000000000000000000000000000000000000000000000000000092
:0d1d51000000000000000000000000000085
:201d5e00000000000000000000000000000000000000000000000000000000000000000065
:201d7e00000000000000000000000000000000000000000000000000000000000000000045
:201d9e00000000000000000000000000000000000000000000000000000000000000000025
:0d1dbe000000000000000000000000000018
:201dcb000000000000000000000000000000000000000000000000000000000000000000f8
:201deb000000000000000000000000000000000000000000000000000000000000000000d8
:201e0b000000000000000000000000000000000000000000000000000000000000000000b7
:0d1e2b0000000000000000000000000000aa
:201e380000000000000000000000000000000000000000000000000000000000000000008a
:201e58000000000000000000000000038000000000000000000000000000000000000000e7
:201e780000000000000000000000000000000000000000000000000000000000000000004a
:0d1e9800000000000000000000000000003d
:201ea50000000000000000000000000000000000000000000000000000000000000000001d
:201ec5000000000000000000000000000000000000000000000000000000000000000000fd
:201ee5000000000000000000000000000000000000000000000000000000000000000000dd
:0d1f050000000000000000000000000000cf
:201f12000000000000000000000000000000000000000000000000000000000000000000af
:201f320000000000000000000000000000000000000000000000000000000000000000008f
:201f520000000000000000000000000000000000000000000000000000000000000000006f
:0d1f72000000000000000000000000000062
:201f7f00000000000000000000000000000000000000000000000000000000000000000042
:201f9f00000000000000000000000000000000000000000000000000000000000000000022
:201fbf00000000000000000000000000000000000000000000000000000000000000000002
:0d1fdf0000000000000000000000000000f5
:201fec000000000000000000000000000000000000000000000000000000000000000000d5
:20200c000000000000000000000000000000000000000000000000000000000000000000b4
:20202c00000000000000000000000000000000000000000000000000000000000000000094
:0d204c000000000000000000000000000087
:20205900000000000000000000000000000000000000000000000000000000000000000067
:20207900000000000000000000000000000000000000000000000000000000000000000047
:20209900000000000000000000000000000000000000000000000000000000000000000027
:0d20b900000000000000000000000000001a
:2020c6000000000000000000000000000000000008000000000000000000000000000000f2
:2020e6000000000000000000000000000000000000000000000000000000000000000000da
:202106000000000000000000000000000000000000000000000000000000000000000000b9
:0d21260000000000000000000000000000ac
:2021330000000000000000000000000000000000028000000000000000000000000000000a
:2021530000000000000000000000000000000000000000000000000000000000000000006c
:2021730000000000000000000000000000000000000000000000000000000000000000004c
:0d219300000000000000000000000000003f
:2021a00000000000000000000000000000000000000000000000000000000000000000001f
:2021c0000000000000000000000000000000000000000000000000000000000000000000ff
:2021e0000000000000000000000000000000000000000000000000000000000000000000df
:0d22000000000000000000000000000000d1
:20220d000000000000000000000000000000000000000000000000000000000000000000b1
:20222d00000000000000000000000000000000000000000000000000000000000000000091
:20224d00000000000000000000000000000000000000000000000000000000000000000071
:0d226d000000000000000000000000000064
:20227a0040680000000000000000000000000000000000000000000000000000000000009c
:20229a00000000000000000000000000000000000000000000000000000000000000000024
:2022ba00000000000000000000000000000000000000000000000000000000000000000004
:0d22da0000000000000000000000000000f7
:2022e700004200000000000000000000000000000000000000000000000000000000000095
:202307000000000000000000000000000000000000000000000000000000000000000000b6
:20232700000000000000000000000000000000000000000000000000000000000000000096
:0d2347000000000000000000000000000089
:20235400000000000000000000000000000000000000000000000000000000000000000069
:20237400000000000000000000000000000000000000000000000000000000000000000049
:20239400000000000000000000000000000000000000000000000000000000000000000029
:0d23b400000000000000000000000000001c
:2023c10080000000000000000000000000000000000000000000000000000000000000007c
:2023e1000000000000000000000000000000000000000000000000000000000000000000dc
:202401000000000000000000000000000000000000000000000000000000000000000000bb
:0d24210000000000000000000000000000ae
:20242e004c0000000000000000000000000000000000000000000000000000000000000042
:20244e0000000000000000000000000000000000000000000000000000000000000000006e
:20246e0000000000000000000000000000000000000000000000000000000000000000004e
:0d248e000000000000000000000000000041
:20249b00080000000000000000000000000000000000000000000000000000000000000019
:2024bb00000000000000000000000000000000000000000000000000000000000000000001
:2024db000000000000000000000000000000000000000000000000000000000000000000e1
:0d24fb0000000000000000000000000000d4
:202508000001000000000000000000000000000000000000000000000000000000000000b2
:20252800000000000000000000000000000000000000000000000000000000000000000093
:20254800000000000000000000000000000000000000000000000000000000000000000073
:0d2568000000000000000000000000000066
:20257500000000000000000000000000000000000000000000000001400000000000000005
:20259500000000000000000000000000000000000000000000000000000000000000000026
:2025b500000000000000000000000000000000000000000000000000000000000000000006
:0d25d50000000000000000000000000000f9
:2025e2000000000000000000000000000000000000000000000000000000000000000000d9
:202602000000000000000000000000000000000000000000000000000000000000000000b8
:20262200000000000000000000000000000000000000000000000000000000000000000098
:0d264200000000000000000000000000008b
:20264f0000000000000000000000000000000000000000000000000000000000000000006b
:20266f0000000000000000000000000000000000000000000000000000000000000000004b
:20268f0000000000000000000000000000000000000000000000000000000000000000002b
:0d26af00000000000000000000000000001e
:2026bc004000000000000000000000000000000000000000000000000000000000000000be
:2026dc000000000000000000000000000000000000000000000000000000000000000000de
:2026fc000000000000000000000000100000000000000000000000000000000000000000ae
:0d271c0000000000000000000000000000b0
:20272900080000000000000000000000000000000000000000000000000000000000000088
:20274900000000000000000000000000000000000000000000000000000000000000000070
:20276900000000000000000000000000000000000000000000000000000000000000000050
:0d2789000000000000000000000000000043
:202796000070000000000000000000000000000000000000000000000000000000000000b3
:2027b600000000000000000000000000000000000000000000000000000000000000000003
:2027d6000000000000000000000000000000000000000000000000000000000000000000e3
:0d27f60000000000000000000000000000d6
:20280300800000000000000000000000000000000000000000000000000000000000000035
:20282300000000000000000000000000000000000000000000000000000000000000000095
:20284300000000000000000000000000000000000000000000000000000000000000000075
:0d2863000000000000000000000000000068
:20287000400000000000000000000000000000000000000000000000000000000000000008
:20289000000000000000000000000000000000000000000000000000000000000000000028
:2028b000000000000000000000000004000000000000000000000000000000000000000004
:0d28d00000000000000000000000000000fb
:2028dd000000000000000000000000000000000000000000000000000000000000000000db
:2028fd0000000000000000000000000000000000000020000000000000000000000000009b
:20291d00000000000000000000000002000000000000000000000000000000000000000098
:0d293d00000000000000000000000000008d
:20294a0000000000000000000000000000000000000000000000000000000000000000006d
:20296a0000000000000000000000000000000000000000000000000000000000000000004d
:20298a0000000000000000000000000000000000000000000000000000000000000000002d
:0d29aa000000000000001000000000000010
:2029b700000000000000000000000000000000000000000000000000000000000000000000
:2029d7000000000000000000000000000000000000000000000000000000000000000000e0
:2029f7000000000000000000000000000000000000000000000000000000000000000000c0
:0d2a170000000000000000000000000000b2
:202a2400000000000000000000000000000000000000000000000000000000000000000092
:202a4400000000000000000000000000000000000000000000000000000000000000000072
:202a6400000000000000000000000000000000000000000000000000000000000000000052
:0d2a84000000000000000000000000000045
:202a9100000000000000000000000000000000000000000000000000000000000000000025
:202ab100000000000000000000000000000000000000000000000000000000000000000005
:202ad1000000000000000000000000000000000000000000000000000000000000000000e5
:0d2af10000000000000000000000000000d8
:202afe000000000000000000000000000000000000000000000000000000000000000000b8
:202b1e00000000000000000000000000000000000000000000000000000000000000000097
:202b3e00000000000000000000000000000000000000000000000000000000000000000077
:0d2b5e00000000000000000000000000006a
:202b6b0000000000000000000000000000000000000000000000000000000000000000004a
:202b8b0000000000000000000000000000000000000000000000000000000000000000002a
:202bab0000000000000000000000000000000000000000000000000000000000000000000a
:0d2bcb0000000000000000000000000000fd
:202bd8000000000000000000000000000000000000000000000000000100000000000000dc
:202bf8000000000000000000000000000000000000000000000000000000000000000000bd
:202c180000000000000000000000000000000000000000000000000000000000000000009c
:0d2c3800000000000000000000000000008f
:202c450000000000000000000000000000000000000000000000000000000000000000006f
:202c650000000000000000000000000000000000000000000000000000000000000000004f
:202c850000000000000000000000000000000000000000000000000000000000000000002f
:0d2ca5000000000000000000000000000022
:202cb200000000000000000000000000000000000000000000000000000000000000000002
:202cd2000000000000000000000000000000000000000000000000000000000000000000e2
:202cf2000000000000000000000000000000000000000000000000000000000000000000c2
:0d2d120000000000000000000000000000b4
:202d1f00000000000000000000000000000000000000000000000000000000000000000094
:202d3f00000000000000000000000000000000000000000000000000000000000000000074
:202d5f00000000000000000000000000000000000000000000000000000000000000000054
:0d2d7f000000000000000000000000000047
:202d8c00000000000000000000000000000000000000000000000000000000000000000027
:202dac000000000000001000000000000000000000000000000000000000000000000000f7
:202dcc000000000000000000000000000000000000000000000000000000000000000000e7
:0d2dec0000000000000000000000000000da
:202df9000000000000000000000000000000000000000000000000000000000000000000ba
:202e1900000000000000000000000000000000000000000000000000000000000000000099
:202e3900000000000000000000000000000000000000000000000000000000000000000079
:0d2e5900000000000000000000000000006c
:202e660000000000000000000000000000000000000000000000000000000000000000004c
:202e860000000000000000000000000000000000000000000000000000000000000000002c
:202ea60000000000000000000000000000000000000000000000000000000000000000000c
:0d2ec60000000000000000000000000000ff
:202ed3000000000000000000000000000000000000000000000000000000000000000000df
:202ef3000000000000000000000000000000000000000000000000000000000000000000bf
:202f130000000000000000000000000000000000000000000000000000000000000000009e
:0d2f33000000000000000000000000000091
:202f4000000000000000000000000000000000000000000000000000000000000000000071
:202f6000000000000000000000000000000000000000000000000000000000000000000051
:202f8000000000000000000000000000000000000000000000000000000000000000000031
:0d2fa0000000000000000000000000000024
:202fad00000000000000000000000000000000000000000000000000000000000000000004
:202fcd000000000000000000000000000000000000000000000000000000000000000000e4
:202fed000000000000000000000000000000000000000000000000000000000000000000c4
:0d300d0000000000000000000000000000b6
:20301a00400000000000000000000000000000000000000000000000000000000000000056
:20303a00000000000000000000000000000000000000000000000000000000000000000076
:20305a00000000000000000000000000000000000000000000000000000000000000000056
:0d307a000000000000000000000000000049
:20308700000000000000000000000000000000000000000000000000000000000000000029
:2030a700000000000000000000000000000000000000000000000000000000000000000009
:2030c7000000000000000000000000000000000000000000000000000000000000000000e9
:0d30e70000000000000000000000000000dc
:2030f4000000000000000000000000000000000000000000000000000000000000000000bc
:2031140000000000000000000000000000000000000000000000000000000000000000009b
:2031340000000000000000000000000000000000000000000000000000000000000000007b
:0d315400000000000000000000000000006e
:203161008000000000000000000000000000000000000000000000000000000000000000ce
:2031810000000000000000000000000000000000000000000000000000000000000000002e
:2031a10000000000000000000000000000000000000000000000000000000000000000000e
:0d31c1000000000000000000000000000001
:2031ce004c0000000000000000000000000000000000000000000000000000000000000095
:2031ee000000000000000000000000000000000000000000000000000000000000000000c1
:20320e000000000000000000000000000000000000000000000000000000000000000000a0
:0d322e000000000000000000000000000093
:20323b000c0000000000000000000000000000000000000000000000000000000000000067
:20325b00000000000000000000000000000000000000000000000000000000000000000053
:20327b00000000000000000000000000000000000000000000000000000000000000000033
:0d329b000000000000000000000000000026
:2032a800000100000000000000000000000000000000000000000000000000000000000005
:2032c8000000000000000000000000000000000000000000000000000000000000000000e6
:2032e8000000000000000000000000000000000000000000000000000000000000000000c6
:0d33080000000000000000000000000000b8
:20331500000000000000000000000000000000000000000000000000000000000000000098
:20333500000000000000000000000000000000000000000000000000000000000000000078
:20335500000000000000000000000000000000000000000000000000000000000000000058
:0d337500000000000000000000000000004b
:2033820000000000000000000000000000000000000000000000000000000000000000002b
:2033a20000000000000000000000000000000000000000000000000000000000000000000b
:2033c2000000000000000000000000000000000000000000000000000000000000000000eb
:0d33e20000000000000000000000000000de
:2033ef000000000000000000000000000000000000000000000000000000000000000000be
:20340f0000000000000000000000000000000000000000000000000000000000000000009d
:20342f0000000000000000000000000000000000000000000000000000000000000000007d
:0d344f000000000000000000000000000070
:20345c00000000000000000000000000000000000000000000000000000000000000000050
:20347c000000000000000000000000000040000000000000000000000000000000000000f0
:20349c00000000000000000000000000000000000000000000000000000000000000000010
:0d34bc000000000000000000000000000003
:2034c9000000000000000000000000000000000000000000000000000000000000000000e3
:2034e9000000000000000000000000000000000000000000000000000000000000000000c3
:203509000000000000000000000000000000000000000000000000000000000000000000a2
:0d3529000000000000000000000000000095
:20353600000000000000000000000000000000000000000000000000000000000000000075
:20355600000000000000000000000000000000000000000000000000000000000000000055
:20357600000000000000000000000000000000000000000000000000000000000000000035
:0d3596000000000000000000000000000028
:2035a300000000000000000000000000000000000000000000000000000000000000000008
:2035c3000000000000000000000000000000000000000000000000000000000000000000e8
:2035e3000000000000000000000000000000000000000000000000000000000000000000c8
:0d36030000000000000000000000000000ba
:20361000002800000000000000000000000000000000000000000000000000000000000072
:2036300000000000000000000000000000000000000000000000000000000000000000007a
:2036500000000000000000000000000000000000000000000000000000000000000000005a
:0d367000000000000000000000000000004d
:20367d000040000000000000000000000000000000000000000000000000000000000000ed
:20369d0000000000000000000000000000000000000000000000000000000000000000000d
:2036bd000000000000000000000000000000000000000000000000000000000000000000ed
:0d36dd0000000000000000000000000000e0
:2036ea000000000000000000000000000000000000000000000000000000000000000000c0
:20370a0000000000000000000000000000000000000000000000000000000000000000009f
:20372a0000000000000000000000000000000000000000000000000000000000000000007f
:0d374a000000000000000000000000000072
:20375700000000000000000000000000000000000000000000000000000000000000000052
:20377700000000000000000000000000000000000000000000000000000000000000000032
:20379700000000000000000000000000000000000000000000000000000000000000000012
:0d37b7000000000000000000000000000005
:2037c4000000000000000000000000000000000000000000000000000000000000000000e5
:2037e4000000000000000000000000000000000000000000000000000000000000000000c5
:20380400000000000000000000000010000000000000000000000000000000000000000094
:0d3824000000000000000000000000000097
:20383100000000000000000000000000000000000000000000000000000000000000000077
:20385100000000000000000000000000000000000000000000000000000000000000000057
:20387100000000000000000000000000000000000000000000000000000000000000000037
:0d389100000000000000000000000000002a
:20389e0000000000000000000000000000000000000000000000000000000000000000000a
:2038be000000000000000000000000000000000000000000000000000000000000000000ea
:2038de000000000000000000000000000000000000000000000000000000000000000000ca
:0d38fe0000000000000000000000000000bd
:20390b0000000000000000000000000000000000000000000000000000000000000000009c
:20392b0000000000000000000000000000000000000000000000000000000000000000007c
:20394b0000000000000000000000000000000000000000000000000000000000000000005c
:0d396b00000000000000000000000000004f
:2039780000000000000000000000000000000000000000000000000000000000000000002f
:2039980000000000000000000000000000000000000000000000000000000000000000000f
:2039b8000000000000000000000000000000000000000000000000000000000000000000ef
:0d39d80000000000000000000000000000e2
:2039e5000000000000000000000000000000000000000000000000000000000000000000c2
:203a05000000000000000000000000000000000000000000000000000000000000000000a1
:203a2500000000000000000000000000000000000000000000000000000000000000000081
:0d3a45000000000000000000000000000074
:203a5200000000000000000000000000000000000000000000000000000000000000000054
:203a7200000000000000000000000000000000000000000000000000000000000000000034
:203a9200000000000000000000000000000000000000000000000000000000000000000014
:0d3ab2000000000000000000000000000007
:203abf00000000000000000000000000000000000180000000000000000000000000000066
:203adf000000000000000000000000000000000000000000000000000000000000000000c7
:203aff00000000000000000000000000001000000000000000000000000000000000000097
:0d3b1f000000000000000000000000000099
:203b2c00000001000000000000000000000000000000000000000000000000000000000078
:203b4c00000000000000000000000000000000000000000000000000000000000000000059
:203b6c00000000000000000000000000000000000000000000000000000000000000000039
:0d3b8c00000000000000000000000000002c
:203b990000000200000000000000000000000000000000000000000000000000000000000a
:203bb9000000000000000000000000000000000000000000000000000000000000000000ec
:203bd9000000000000000000000000000000000000000000000000000000000000000000cc
:0d3bf90000000000000000000000000000bf
:203c060000000000000000000010000000000000000000000000000000000000000000008e
:203c260000000000000000000000000000000000000000000000000000000000000000007e
:203c460000000000000000000000001000000000000000000000000000000000000000004e
:0d3c66000000000000000000000000000051
:203c7300080000000000000000000000000000000000000000000000000000000000000029
:203c9300000000000000000000000000000000000000000000000000000000000000000011
:203cb3000000000000000000000000000000000000000000000000000000000000000000f1
:0d3cd30000000000000000000000000000e4
:203ce0000000000000000000000000000000000000000000000000000000000000000000c4
:203d00000000000000000000000000000000000000000000000000000000000000000000a3
:203d2000000000000000000000000000000000000000000000000000000000000000000083
:0d3d40000000000000000000000000000076
:203d4d00000000000000000000000010000000000000000000000000000000000000000046
:203d6d00000000000000000000000000000000000000000000000000000000000000000036
:203d8d00000000000000000000000000000000000000000000000000010000000000000015
:0d3dad000000000000000000000000000009
:203dba000000000000000000000000000000000000000000000000000000000000000000e9
:203dda000000000000000000000000000000000000000000000000000000000000000000c9
:203dfa000000000000000000000000000000000000000000000000000000000000000000a9
:20421c0000000000000000000000000400000000000000000000000000000000000000007e
:20423c00000000000000000000000000000000000000000000000000000000000000000062
:0d425c000000000000000000000000000055
:20426900000000000000000000000000000000000000000000000000000000000000000035
:20428900000000000000000000000000000000000000000000000000000000000000000015
:2042a9000000000000000000000000000000000000000000000000000000000000000000f5
:0d42c90000000000000000000000000000e8
:2042d600000000400000000000010000000000000400000000000010000000000000400033
:2042f6000000000001000000000000040000000000000000000000000000000000000000a3
:20431600000000000040000000000001000000000000000000000000001000000000000036
:0d433600000000000000000000000000007a
:2043430000000000000000000000000000000000000000000000000000000000000000005a
:20436300000000000100000000000004000000000000000000000000000000000000000035
:204383000000000000400000000000010000000000000000000000000000000000000000d9
:0d43a300000000000000000000000000000d
:2043b0000000000000000000000000000000000000000000000000000000000000000000ed
:2043d0000000000000000000000000000000000000000000000000000000000000000000cd
:2043f00000000000000000000000000000000000000000000000000000100000000000009d
:0d441000000000000000000000000000009f
:20441d0000000040000000000001000000000000040000000000001000000000000000002a
:20443d0000000000010000000000000000000000000000000000000000000000000000005e
:20445d0000000000000000000000000000000000000000000000000000100000000000002f
:0d447d000000000000000000000000000032
:20448a00000000000000000000000000000000000000000000000000000000000000000012
:2044aa000000000000000000000000000000000000000000000000000000000000000000f2
:2044ca000000000000000000000000000000000000000000000000000000000000000000d2
:204d2e00000000001000000000000000000000000000000000000000000000000000000055
:204d4e00000000000000000000000000000000000000000000000000000000000000000045
:0d4d6e000000000000000000000000000038
:204d7b00000000000000000000000000000000000000000000000000000000000000000018
:204d9b000000000000000000000000000000000000000000000000000000000000000000f8
:205746000000000000000000000000000000000000500000000000000000000000000000f3
:20576600000000000000000000000000000000000000000000000000000000000000000023
:20578600000000000000000000000000000000000000000000000000000000000000000003
:0d57a60000000000000000000000000000f6
:2057b3000000000000000000000000000000000000000000000000000000000000000000d6
:2057d3000000000000000000000000000000000000000000000000000000000000000000b6
:2057f300000000000000000000000000000000000000000000000000000000000000000096
:0d5813000000000000000000000000000088
:20582000000000000000000000000000000000000000000000000000000000000000000068
:20584000000000000000000000000000000000000000000000000000000000000000000048
:20586000000000000000000000000000000000000000000000000000000000000000000028
:0d588000000000000000000000000000001b
:20588d000000000000000000000000000000000000000000000000000000000000000000fb
:2058ad000000000000000000000000000000000000000000000000000000000000000000db
:2058cd000000000000000000000000000000000000000000000000000000000000000000bb
:0d58ed0000000000000000000000000000ae
:2058fa000000000000000000000000000000000000000036001001000002fe506000000097
:20591a0000000000000000000000000000000000000000000000000000000000000000006d
:20593a0000000000000000000000000000000000000000000000000000000000000000004d
:0d595a000000000000000000000000000040
:205967000000000000000000000000000000000000010018015241000002d0005100000050
:2059870000000000000003c00000000000000000000000000000000000000000000000003d
:2059a7000000000000000000000000000000000000000000000000000000000000000000e0
:0d59c70000000000000000000000000000d3
:2059d40000000000000000000000000000000001800100000000060000000000000000002b
:2059f400000000006000000000000040000000000000000000000000000000000000008073
:205a1400000000000000000000000000000000000000000000000000000000000000000072
:0d5a34000000000000000000000000000065
:205a41000000000000000000000000000000000200008000000008000000000000000000bb
:205a6100000000008000000000000000000000000000000000000000000000000000034062
:205a8100000000000000000000000000000000000000000000000000000000000000000005
:0d5aa10000000000000000000000000000f8
:205aae000000000000000000000000000000000000000000000000000000000000000000d8
:205ace00000000004000000000000000000000000000000000000000000000000000000078
:205aee00000000000000000000000000000000000000000000000000000000000000000098
:0d5b0e00000000000000000000000000008a
:205b1b0000000000000000000000000000000000000000000000000000000000000000006a
:205b3b0000000000400000000000000000000000000000000000000000000000000000000a
:205b5b0000000000000000000000000000000000000000000000000000000000000000002a
:0d5b7b00000000000000000000000000001d
:205b88000000000000000000000000000000000000000000000000000000000000000000fd
:205ba8000000000000020300000000000000000000000000000000000000000000000000d8
:205bc8000000000000000000000000000000000000000000000000000000000000000000bd
:0d5be80000000000000000000000000000b0
:205bf500000000000000000000000000000000000000000000000000000000000000000090
:205c1500000000000003c64000000000000000000000000000000000000000000000000066
:205c350000000000000000000000000000000000000000000000000000000000000000004f
:0d5c55000000000000000000000000000042
:205c620000000000000000000000000000000000000008000000000000000000000000001a
:205c8200000000000000003daa04080000000000000000000000000000000000000000000f
:205ca2000000000000000000000000000000000000000000000000000000000000000000e2
:0d5cc20000000000000000000000000000d5
:205ccf000000000000000000000000000000000000001000000000000000000000000000a5
:205cef0000000000001000350fa4000000000000000000000000000000000000000000009d
:205d0f00000000000000000000000000000000000000000000000000000000000000000074
:0d5d2f000000000000000000000000000067
:205d3c000000000000000000000000000000000000000000000000000e0400000000000035
:205d5c00000000000000000000000000000000000000000000000000000000000000000027
:205d7c00000000000000000000000000000000000000000000000000000000000000000007
:0d5d9c0000000000000000000000000000fa
:205da9000000000000000000000000000000000000000000000000000030000000000000aa
:205dc900000000000000024000000000000000000000000000000000000000000000000078
:205de90000000000000000000000000000000000000000000000000000000000000000009a
:0d5e0900000000000000000000000000008c
:205e160000000002000000000000000000000000000000000000000000000000000000006a
:205e36000000000000004036eaa50000000000000000000000000000000000000000000047
:205e560000000000000000000000000000000000000000000000000000000000000000002c
:0d5e7600000000000000000000000000001f
:205e83000000000000000000000000000000000000000000000000000000000000020000fd
:205ea300000000000000602ceea400000000000000000000000000000000000000000000c1
:205ec3000000000000000000000000000000000000000000000000000000000000000000bf
:0d5ee30000000000000000000000000000b2
:205ef000000000000000000000000000000000030050000000000c0000040000000000002f
:205f100000000000c0000000000000000000000000000000000000000000000000000000b1
:205f3000000000000000000000000000000000000000000000000000000000000000000051
:0d5f50000000000000000000000000000044
:205f5d00000000000000000000000000000000020020000000000800003c000000000000be
:205f7d00000000000000000000000000800000000000000000000000000000000000000084
:205f9d000000000000000000000000000000000000000000000000000000000000000000e4
:0d5fbd0000000000000000000000000000d7
:205fca000000000000000000000000000000000000070000000000000000000000000000b0
:205fea00c000000000000000000000000000000000000000000000000000000000000000d7
:20600a00000000000000000000000000000000000000000000000000000000000000000076
:0d602a000000000000000000000000000069
:206037000000000000000000000000000000000000008000000000000000000000000000c9
:20605700000000000000000000000000000000000000000000000000000000000000000029
:20607700000000000000000000000000000000000000000000000000000000000000000009
:0d60970000000000000000000000000000fc
:2060a400000000000000000000600000000000018000019ae8000600000000000000000072
:2060c40000000000000000000000000040000000000100000000000000000000000000007b
:2060e40000000000000000000000000000000000000000000000000000000000000000009c
:0d610400000000000000000000000000008e
:206111000000000000000000008000000000000200000affa4000800240000000000000013
:206131000000000000800000000000000000000000000000000000000000000000000000ce
:2061510000000000000000000000000000000000000000000000000000000000000000002e
:0d6171000000000000000000000000000021
:20617e000000000000000000000000000000000000000a00000000000000000000000000f7
:20619e0007a0280000000000000000005000000000000000000000000000000000000000c2
:2061be000000000000000000000000000000000000000000000000000000000000000000c1
:0d61de0000000000000000000000000000b4
:2061eb00000000000000000000000000000000000000100000000000000000000000000084
:20620b0000402801000000000000000000000000000000000000000000000000000000000a
:20622b00000000000000000000000000000000000000000000000000000000000000000053
:0d624b000000000000000000000000000046
:2062580000000280000000000000000000000000000f00be4b80000000000000000000000c
:206278001bb8080800000000000000002040000000000000000000000000000000000000c3
:206298000000000000000000000000000000000000000000000000000000000000000000e6
:0d62b80000000000000000000000000000d9
:2062c50000000100000000000000000000000000000780b7d7800000000000000000000023
:2062e500ad4000040000000000000000400000000000000000000000000000000000000068
:20630500000000000000000000000000000000000000400000000000000000000000000038
:0d632500000000000000000000000000006b
:206332000000000000000000000009600000000000000000000002000070000000000080f0
:2063520000000000000000000000000000000000000000000000000000000000000000002b
:2063720000000000000000000000000000000000000000000000000000000000000000000b
:0d63920000000000000010000000000000ee
:20639f0000000000000000000000000000000000000000000000000000400000000000900e
:2063bf000000000000000000000000000000000000000000000000000000000000000000be
:2063df0000000000000000000000000000000000000000000000000000000000000000009e
:0d63ff000000000000000000000000000091
:20640c0000000000000000000000004000000000000008df01c000002000000000000080e8
:20642c00000000000000000000000000000000000000000000000000000000000000000050
:20644c00000000000000000000000000000000000000000000000000000000000000000030
:0d646c000000000000000000000000000023
:206479000000000000000000000002e0000000000389105200c000002c00000000000070d7
:206499000000000000000000000000000000000000000000000000000000000000000000e3
:2064b9000000000000000000000000000000000000000000000000000000000000000000c3
:0d64d90000000000000000000000000000b6
:2064e6000000000000000000000000068dd005000020005fb0d480000002df744000000115
:20650600e7ec20800000000000000000000000000000000000000000000000000000000002
:20652600000000000000000000000000000000000000000000000000000000000000000055
:0d6546000000000000000000000000000048
:206553000000000000000000000000003cc4a484005000d03058000000007c5879400000cb
:2065730003780000000000000000000000000000000000000000000000000000000000008d
:206593000000000000000000000000000000000000000000000000000000000000000000e8
:0d65b30000000000000000000000000000db
:2065c000000000000000000000c00000000000030000000000000c00000400000000007870
:2065e00000000000000000000000000000000000000000000000000000000000000000009b
:2066000000000000000000000000000000000000000000000000000000000000000000007a
:0d662000000000000000000000000000006d
:20662d000000000000000000008000000000000203870d0000000800003400000000007880
:20664d0000000000000000000000000000000000000000000000000000000000000000002d
:20666d0000000000000000000000000000000000000000000000000000000000000000000d
:0d668d000000000000000000000000000000
:20669a000000000200100000001000001dc08000000018000000000c80027caa080000008d
:2066ba00036028000000078000000000001e00000000000000000000000c00000000000084
:2066da000000000000000000000000000000000000000000000000000000000000000000a0
:0d66fa000000000000000000000000000093
:2067070000000000f0e0000000000002fcc0020000000000000000014003d05a0000000074
:2067270000802800000000000000000000100000000000000000000000100000000000008a
:20674700000000000000000000000000000000000000000000000000000000000000000032
:0d6767000000000000000000000000000025
:2067740000001a0000e000000060080000000001800800f7bc1000029e0000000018007827
:206794000379000802e2c0000000018000000000000000000000000000000000000000003c
:2067b4000000000000000000000000000000000000000000000000000000000000000000c5
:0d67d40000000000000000000000000000b8
:2067e1000000210001000000008004000000000200070074001440087e0000000020000873
:206801000700000400014000000002000000000000000080000000030000000000000000a6
:20682100000000000000000000000000000000000000000000000000000000000000000057
:0d684100000000000000000000000000004a
:20684e000000000000006bc101000000000000000000005a14000001567c000000000000bc
:20686e00000000000000000000000100000000000000000000000000000000000001000008
:20688e000000000000000000000000000000000000000000000000000000000000000000ea
:0d68ae0000000000000000000000000000dd
:2068bb0000000000000003c0000000000000000000000074000040000c68000000000000d2
:2068db0000000000000000000000020000000000000000000000000000000000000000009b
:2068fb0000000000000000000000000000000000000000000000000000000000000000007d
:0d691b00000000000000000000000000006f
:206928000000000080000000000014000eca0000000800ff9818000f4000000000040018c1
:20694800006bc1800000000000000000000000000000000000000000000000000000000083
:2069680000000000000000000000000000000000000000000000000000000000000000000f
:0d6988000000000000000000000000000002
:206995000000000010000000000008000d0a500000010056701041008100000000040000c6
:2069b5000003c02400000000000000000000000000000000000000000000000000000000db
:2069d500000000000000000000000010000000000000000000000000000000000000000092
:0d69f5000000000000000000000000000095
:206a020000000002000063c10000e1e28dec1020102000be815800a00001cb0a00000001a4
:206a2200c33c20000401c00000000000000000000000000000000000000000000000000070
:206a4200000000000000000000000000000000000000000000000000000000000000000034
:0d6a62000000000000000000000000000027
:206a6f0000000000000043c0000000472f0c3000004000f0141000000003ee080000009174
:206a8f0003f0000000142000000000000000000000000000000000000000000000000000c0
:206aaf000000000000000000000000000000000000000000000000000000000000000000c7
:0d6acf0000000000000000000000000000ba
:206adc000000000059e000000000006004f5b400000580000000000080380a3002003800a3
:206afc00007bc1000004000f8100000000000000000000800000000000000000000000002a
:206b1c00000000000000000000000000000000000000000000000000000000000000000059
:0d6b3c00000000000000000000000000004c
:206b49000000000000000000000003c03ec5a600000000000000000140400030000000b05f
:206b69000043c0000008025ec000000000000000000001000000000380000000000000005d
:206b89000000000000000400000000000000000000000000000000000000000000000000e8
:0d6ba90000000000000000000000000000df
:206bb600000000000003f000040003629cc0059401018000000000400068000000000080c4
:206bd6001000000000000025850220000000722814000000000000000001138280000000ff
:206bf60000000000000000000000000000000000000000000000000000000000000000007f
:0d6c16000000000000000000000000000071
:206c2300000000000001a600000001c7ce00a4000000000000000000842800000000007054
:206c4300e00000000000403e01000000000e0c281010000000000000000c0c0280000001d5
:206c6300000000000000000000000000000000000000000000000000000000000000000011
:0d6c83000000000000000000000000000004
:206c9000000000000000000000c0000000000003000d9af6000400401e786a5000000038b8
:206cb000c0000000000007000000030000000000000000000000000000000000000000807a
:206cd0000000000000000000000000000000000000000000000000000000000000000000a4
:0d6cf0000000000000000000000000000097
:206cfd0000000000000000000080000200000002000500524040002002035e100000000881
:206d1d00000000000080000000000000000000000000400000000000000000000000014055
:206d3d00000000000000000000000000000000000000000000000000000000000000000036
:0d6d5d000000000000000000000000000029
:206d6a0040000000018000000000080634e0000000051a00000000400000000000000000c7
:206d8a00000000000000600000000000000000000000000000000000000000000000000485
:206daa0023dcf50000008087ec2000000000000000000000000000000000000000000000c2
:0d6dca0000000000000000000000000000bc
:206dd7000000000000000000000014041fc012000000000000000000000000000000000093
:206df70000000000000000000000000010000000000020000000000000000000000000024a
:206e17004260f00840001187240000000000000000000000000000000000000000000000c5
:0d6e3700000000000000000000000000004e
:206e440000001800800000000000020247aa000000000000000006ee26037d000000008087
:206e6400100000006000002fee2501800000000000000000000000000000000000000020bb
:206e840007fcd01218001815342000600200018f04001300000000000600800000000000e1
:0d6ea40000000000000000000000000000e1
:206eb100800020009000000000000247000a000000000000000008208400db40000000b0c7
:206ed100a00000008000003d84240228000000000000000000000028000000000000001c2e
:206ef1003fe080002000008da00001800040000f04902800000000000801400000000000c0
:0d6f11000000000000000000000000000073
:206f1e006c70000000000000000401c2d683f02008000a168280010000016e8022000414f3
:206f3e000d6800200041e780000003205000ff815040000000000000000183a804100080b3
:206f5e007ac8ff00000081e3b00008000000000000000000000000000c00000000000000aa
:0d6f7e000000000000000000000000000006
:206f8b002c0000000000000000000007bf01a00010000000028200003c2cc000000002088d
:206fab00ef81400000000000000001010000f82bd000004000000000000fb0140a000034d0
:206fcb006c50f000000050b180080000000000000000000000000000080000000000000069
:0d6feb000000000000000000000000000099
:206ff80000010000000f63c1000001405780f00000000e77a9408000be0000000000008011
:207018000000000000000035c0a20000000000000000000000000000580000000000002049
:2070380001ca2c22000881e77168080000000000000000500000000000000000000000007e
:0d705800000000000000000000000000002b
:20706500000000000003a78121000003e500a00000051e982fc040012430000000000010e8
:20708500000000000000002f000000000000000000000000000000000f0000000000081491
:2070a5000170200040001009c1fc01000000000000000020000000000000000000000004ff
:0d70c50000000000000000000000000000be
:2070d2000000000000000000000200000000000001200bb680000004210400a5400000002c
:2070f200087a80000000000ee0202000a001000000000800000000000800df028000001428
:20711200065a000100005001bbd50010000001cf041000000000000000000c040000000017
:0d7132000000000000000000000000000050
:20713f000000000000000000000403c0000000000000183c028010001c33c05a000000001a
:20715f00014140000002400000200000000e00000000000000000000070034000000003ca7
:20717f0022cc10000000700003d500000000000f04000000000000000000002c000000006b
:0d719f0000000000000000000000000000e3
:2071ac0000000000100000000000000014e0a200280000b2abca20041c0018f0400280784c
:2071cc00e7e00408006be394c800b000000000000000000000000000010e00000000003c2b
:2071ec0004ce3e0080000185f815040001c000000000100000000000000000380000000053
:0d720c000000000000000000000000000075
:2072190000000000080000000000c0000200a004100700fc3fc02000002000f0000108019b
:207239000dc000000033e380080000000000000000000000000000000118000000000006ab
:207259003f7f7c00000000a08015000000200000000028000000000000000000000000005e
:0d7279000000000000000000000000000008
:207286000000000000a00000000001c60000000000401e00000000002e2018f0410000008c
:2072a6000bf0300800000000000000000000000000004000000000280f803a8200000000e2
:2072c60078000000000058e57281000000000000000000000000000002000070000000008e
:0d72e600000000000000000000000000009b
:2072f3000000000000000000000001638000000000290000000000002e4000f008400000c8
:20731300078010000017c000000000001000000000000000000000000580770004000000dc
:20733300380000000001f00042810500000000000000000000000000000000000000000049
:0d735300000000000000000000000000002d
:2073600000703400000000000010016014b2000000018106828000000000ce200000035166
:20738000e8282844c0c0024000000300000e0000000000000000000300000000000000009b
:2073a0007c0000003400700027c902c00800000000000000000000000c000000cf40508008
:0d73c00000000000000000000000000000c0
:2073cd0000002400000000000010c0001e91800000008a740140200000016b5a0800020846
:2073ed009f00140090000340000000000b0c00000000000000000003800000000000000060
:20740d00240000000400d00577c5000010000000000000000000000008000000fd8540004c
:0d742d000000000000000000000000000052
:02743a00000050
:02743c0011013c
:02743e0001014a
:2074400000000000000000000000000000000000000000000000000000000000000200002a
:2074600000000000000000000000000000000000000080000000000000000000000080000c
:207480000000000000000000000000000000000000000000000000000000000000000000ec
:0d74a0000000000000000800800000000057
:2074ad000000000000000000000000000000000000000000000000000000000000000000bf
:2074cd0000000000000000000000000000000000000000000000000000000000000000009f
:2074ed0000000000000000000000000000000000000000000000000000000000000000007f
:0d750d0000000000000000009000000000e1
:20751a00000000000000000000040000000000000000000000000000000000000001001438
:20753a000000000000000000000000000000000000004003000000000000000000004000ae
:20755a00000000000000000000000000000000000000000000000000000000000000000011
:0d757a000000000000000400000000000000
:207587000000000000000000000000000000000000000000000000000000000000000020c4
:2075a7000000000000000000000000000000000000000008000000000000000000000000bc
:2075c7000000000000000000000000000000000000000000000000000000000000000000a4
:0d75e7000000000000000000000000000097
:2075f400000000000000000000000000000000000000000000000000000000000002000075
:20761400000c00000000000000000000000000000000800000030000000000000000800047
:20763400000200000000000000000000000000000000000000000000000000000000000034
:0d7654000000000000000800000020000001
:20766100000000000000000000000000000000000000000000000000000000000000000009
:207681000004000000000000000000000000000000000000000100000000000000000000e4
:2076a1000001000000000000000000000000000000000000000000000000000000000000c8
:0d76c10000000000000000000000100000ac
:2076ce000000000000000000000c000000000000000000000000000000010000000000008f
:2076ee00000000000000000000000000000000000000000000000000000000000000000775
:20770e0000000000000000000000000000000000000000000000000000000000000000005b
:0d772e00000000000000000030000000001e
:20773b00000000000000000000080000000000000000000000000000000000000000000026
:20775b0000000000000000000000000000000000000000000000000000000000000000000e
:20777b000000000000000000000000000000000000000000000000000000000000000000ee
:0d779b000000000000000000800000000061
:2077a8000000000000000000000000001000000000000000000000000002000000000000af
:2077c8000000000000000000000000000000000000000000000000000000000000000000a1
:2077e800000000000000000000000000000000000000000000000000000000000000000081
:0d7808000000000000000000000000000073
:20781500000000000000000000000000000000000000000000000000000000000000000053
:20783500000000000000000000000000000000000000000000000000000000000000000033
:20785500000000000000000000000000000000000000000000000000000000000000000013
:0d7875000000000000000000000000000006
:207882000000000000000000000000000000000000000000000000400000000000000000a6
:2078a2000000000000000000000000000000000000000000000000000000000000000000c6
:2078c2000000000000000000000000000000000000000000000000000000000000000000a6
:0d78e200000000000000000000000c00008d
:2078ef00000000000000000000000000000000000000000000000000000000000000000079
:20790f00000000000000000000000000000000000000000000000000000000000000000058
:20792f00000000000000000000000000000000000000000000000000000000000000000038
:0d794f00000000000000000000000c00001f
:20795c0000000000000000000000000000000000000000000000000000000000000000000b
:20797c000000000000000000000000000000000000000000000000000000000000000000eb
:20799c000000000000000000000000000000000000000000000000000000000000000000cb
:0d79bc0000000000000000000000000000be
:2079c90000000000000000000000000000000000000000000000004000000000000000005e
:2079e90000000000000000000000000000000000000000000000000000000000000000007e
:207a090000000000000000000000000000000000000000000000000000000000000000005d
:0d7a29000000000000000000000000000050
:207a36000000000000000000000000001000000000000000000000400000000000000000e0
:207a560004000000000000000000000000000000000000000100000000000000000000000b
:207a76000100000000000000000000000000000000000000000000000000000000000000ef
:0d7a960000000000000000000010000000d3
:207aa3000000000000000000000000000000000000000000000000000000000000000000c3
:207ac300000000000000000040000000000000000000000000000000000000000000000063
:207ae30000060000000000000000000000000000000000000000000000000000000000007d
:0d7b03000000000000000000000000000075
:207b1000000000000000000000000000000000000000000000000000000000000000000055
:207b300000000000000000000000000000080000000c00023fc01000000000000000000010
:207b5000036e1d400000000000000000000000000000000000000000000000000000000047
:0d7b70000000000000000000000000000008
:207b7d000000000000000000000000000000000000000000000000000000000000000000e8
:207b9d0000000000000000000000030000010000000c000e0040000000400000000c00809e
:207bbd0002fc5f5000000000000000000000000000000000000000000000000000000000fb
:0d7bdd00000000000000000000000000009b
:207bea0000000000000000000000000000000000000000000000000000000000000000007b
:207c0a000000000000000000000000000080143fc020000067400000000000000000002cd4
:207c2a004000000004000000000000000000000000000000000000000000000000000000f6
:0d7c4a000000000000000000000100f0003c
:207c570000000000000000000000000000000000000000000000000000000000000000000d
:207c770000000000000000000000000001001697c02000007040200000000000000000206f
:207c9700780000000400000000000000000000000000000000000000000000000000000051
:0d7cb70000000000000000000200c0f0000e
:207cc4000000000000000000000000000000000000000000000000000000000000000000a0
:207ce400000000000000000000000000000f00000000002424400420000000000000802c19
:207d040030000000000000000000000000000000000000000000000000000000000000002f
:0d7d24000000000000000002c0030f50002e
:207d3100000000000000000000000000000000000000000000000000000000000000000032
:207d5100000000000000000000000000000000000000000002c00000000000000000002030
:207d71000400000001000000000000000000000000000000000000000000000000000000ed
:0d7d910000000000000000020016af5000ce
:207d9e000000000000000000000000000000000000000000000000000000000000000000c5
:207dbe000000000000000000000000000100dc07400000343160004000000000000000007c
:207dde00000000000000000000000000000000000000000000000000000000000000000085
:0d7dfe000000000000000000040000000074
:207e0b00000000000000000000000000000000000000000000000000000000000000000057
:207e2b00000000000000000000000000010c37b8808000207fe0204000000000000000005c
:207e4b00000000000000000000000000000000000000000000000000000000000000000017
:0d7e6b000000000000000000030000000007
:207e78000000000000000000000000000000000000000000000000000000000000000000ea
:207e98000000000000000000000000000008d8054000000001600000000000000000000044
:207eb80030000000000000000000000000000000000000000000000000000000000000007a
:0d7ed800000000000000000000010a008012
:207ee50000000000000000000000000000000000000000000000000001000000000000007c
:207f0500000000000000000000000000001cbb0942c0100e00e00800000000000000000074
:207f2500040000000010000000000000000000000000000000000000000000000000000028
:0d7f45000000000000000000070eea01002f
:207f520000000000000000000000000000000000000000000000000000000000000000000f
:207f72000000000000000000000002000700503fc00c000402e0000000000000000c000099
:207f92000000000000000000000000000000000000000000000000000000000000000000cf
:0d7fb20000000000000000000000000000c2
:207fbf000000000000000000000000000000000000000000000000000000000000000000a2
:207fdf00000000000000000000000100019c5317c00c10002060200000000000000c0000f2
:207fff00000000000000000000000000000000000000000000000000000000000000000062
:0d801f0000000000000000000380000000d1
:20802c00000000000000000000000000000000000000000000000000000000000000000034
:20804c000000000000000000000002000000042810080002000010000000000000090000b3
:20806c000000000000000000000000000000000000000000000000000000000000000000f4
:0d808c0000000000000000000000000000e7
:208099000000000000000000000000000000000000000000000000000000000000000000c7
:2080b900c00000000000000000000180000076a81006001670e000000000000000060000c6
:2080d900000000000000000000000000000000000000000000000000000000000000000087
:0d80f900000000000000000000000000007a
:20810600000000000000000000000000000000000000000000000000000000000000000059
:2081260000801410000000000000000007000000000000a6002010000000000000000001b7
:20814600000000000000000000000000000000000000000000000000000000000000000019
:0d816600000000000000000000000000000c
:208173000000000000000000000000000000000000000000000000000000000000000000ec
:2081930001a014040000000000000000070000000000003e00c0000000000000000000000e
:2081b3000000000000000000000000000000000000000000000000000000000000000000ac
:0d81d300000000000000000000000000009f
:2081e0000000000010058015800000100000000000071f743e8800000000000000000000e5
:20820000e03c00000002634000000000000efb3b80040080346040000000002808008000d1
:2082200000000000000000000000000000000000000000000000000000000000000000003e
:0d8240000000000000000000000000000031
:20824d00000030008005a141040000000000000000081d873d40000000000000000000004d
:20826d00170402000000e00000000000000092ddc80401400560000001003fa80400000027
:20828d000000000000000000000000000000000000000000000000000000000000000000d1
:0d82ad0000000000000000000000000000c4
:2082ba000000000011018015800000000000000000078e0000000000800000000000000860
:2082da00a02000000000200000000000000000000000003c7ee0100000800000000000007a
:2082fa00000000000000000000000004000000000000000000000000000000000000000060
:0d831a000000000000000000000000000056
:20832700000000009885a1430400000000000003000f010000000000400000000000005886
:20834700130402000000400000000000000000000000a0003bc0000005800000000000009d
:2083670000000000000000000000000a0040000000000000000000000000000000000000ac
:0d83870000000000000000000000000000e9
:2083940000000000000500158000000000000000000f0e0000000000000000000000000012
:2083b400002400000000077fdee00000010000000000001c226000010f8000000000000012
:2083d4000000000000000000000000000000030a0008000000000000000000000000000074
:0d83f400000000000000000000000000007c
:20840100000000000005a14304000000000000000000010000000000000000000000005815
:208421000700020000000764b77000000f0e0000000000040240080009000000000000002c
:208441000000000000000000000000000000168a00800000000000000000000000000000fb
:0d846100000000000000000000000000000e
:20846e0000000000000100158000000000000000000000083d40000000000000000000587b
:20848e00002000001001e244d2e2800000101f10c200000000400000004e00000000200094
:2084ae0000000000000000000000000000000000000000000000000000400000000000006e
:0d84ce0000000000000000000000000000a1
:2084db00000000040007a143040000000000000000000073bd44000000000000000000d842
:2084fb00030002001000c05ec5e00000001cbb78c000000001c000000008000000020000af
:20851b000000000000000000000000000000000000000000000000000080000000000000c0
:0d853b000000000000000000000000000033
:20854800000000000085801500000000000000000000009401420000000000000000000022
:20856800f03c000000024240000000000b00000000000a0040e010101500b2474000200080
:208588000000000000000000000000000000020a0100000000000000008000000000000046
:0d85a80000000000000000000000000000c6
:2085b50000000000199521438000000000000000000000f28000000000000000000800009a
:2085d500070002000002004000000000000000000000000063400020280072d78010000077
:2085f500000000000000000000000000000716ea000000000000000000000000000000005f
:0d8615000000000000000000000000000058
:2086220000003100b08180158400000000000000038308f814020000000000000000000021
:20864200003000000000041feee00000000000000000000070e0801000007b4b80000000d1
:20866200000000000000000000000000c00000000000000000000000000000000000000038
:0d86820000000000000000000000000000eb
:20868f0000003000819521430010000000000000000808d2a9400000000000000000000046
:2086af0003000200000006378770000005000000000000003be00000058036978020000060
:2086cf0000000000000000000000000000000000000000000000000000000000000000008b
:0d86ef00000000000000000000000000007e
:2086fc0000002000000500154000000000000000000000f03e80000000000000000000d066
:20871c000030000000002400000000000d0d00000008000c40200003001000000000824086
:20873c000000000000000000000000100000000000000010000000000000000000000000fd
:0d875c000000000000000080000000000090
:2087690000001800000721434000000000000000000008873d44000000000000000000809d
:20878900070402000000660000000000000000000006a02071c00000001c0000000000004a
:2087a9000000000000000000000000000000000000000100000000000000000000000000af
:0d87c90000000000000000000000000000a3
:2087d60000000000b00100155000000000000000002000003c01000000000000000000719f
:2087f600008000080003c26ccee00000000d9017c500109e3420000000003014000000013c
